{
	"data": {
		"bytecode": {
			"linkReferences": {},
			"object": "608060405262278d0060085563621579006009556301e13380600a556363f6ac80600b55630641ce80600c5563623a6300600d556307861f80600e556362157900600f5563031d9b8060105563621579006011556301e133806012553480156200006857600080fd5b5060405162002804380380620028048339810160408190526200008b9162000579565b6040518060400160405280600e81526020016d2a30b632b99037b31021b430b4b760911b8152506040518060400160405280600481526020016354414c4560e01b815250620000e9620000e36200025d60201b60201c565b62000261565b8151620000fe906004906020850190620004b6565b50805162000114906005906020840190620004b6565b5050506200014f306200012c620002b160201b60201c565b6200013990600a62000790565b6200014990637735940062000888565b620002b6565b6200015c308b8b62000387565b6200016930898962000387565b6200017630878762000387565b6200018330858562000387565b6200019030838362000387565b6040805180820182526001600160a01b039b8c1680825260209182018c9052601880546001600160a01b0319908116909217905560199b909b5581518083018352998c16808b52998101899052601a80548c16909a17909955601b9790975586518088018852958a16808752958801859052601c80548a16909617909555601d9390935584518086018652918816808352918601819052601e80548816909217909155601f55825180840190935290941680825290820184905281549092169091179055602155620008fd565b3390565b600080546001600160a01b038381166001600160a01b0319831681178455604051919092169283917f8be0079c531659141344cd1fd0a4f28419497f9722a3daafe3b4186f6b6457e09190a35050565b601290565b6001600160a01b038216620002e85760405162461bcd60e51b8152600401620002df90620006e8565b60405180910390fd5b620002f660008383620004b1565b80600360008282546200030a919062000728565b90915550506001600160a01b038216600090815260016020526040812080548392906200033990849062000728565b90915550506040516001600160a01b03831690600090600080516020620027e4833981519152906200036d9085906200071f565b60405180910390a36200038360008383620004b1565b5050565b6001600160a01b038316620003b05760405162461bcd60e51b8152600401620002df90620006a3565b6001600160a01b038216620003d95760405162461bcd60e51b8152600401620002df906200061a565b620003e6838383620004b1565b6001600160a01b03831660009081526001602052604090205481811015620004225760405162461bcd60e51b8152600401620002df906200065d565b6001600160a01b038085166000908152600160205260408082208585039055918516815290812080548492906200045b90849062000728565b92505081905550826001600160a01b0316846001600160a01b0316600080516020620027e4833981519152846040516200049691906200071f565b60405180910390a3620004ab848484620004b1565b50505050565b505050565b828054620004c490620008aa565b90600052602060002090601f016020900481019282620004e8576000855562000533565b82601f106200050357805160ff191683800117855562000533565b8280016001018555821562000533579182015b828111156200053357825182559160200191906001019062000516565b506200054192915062000545565b5090565b5b8082111562000541576000815560010162000546565b80516001600160a01b03811681146200057457600080fd5b919050565b6000806000806000806000806000806101408b8d03121562000599578586fd5b620005a48b6200055c565b995060208b01519850620005bb60408c016200055c565b975060608b01519650620005d260808c016200055c565b955060a08b01519450620005e960c08c016200055c565b935060e08b01519250620006016101008c016200055c565b91506101208b015190509295989b9194979a5092959850565b60208082526023908201527f45524332303a207472616e7366657220746f20746865207a65726f206164647260408201526265737360e81b606082015260800190565b60208082526026908201527f45524332303a207472616e7366657220616d6f756e7420657863656564732062604082015265616c616e636560d01b606082015260800190565b60208082526025908201527f45524332303a207472616e736665722066726f6d20746865207a65726f206164604082015264647265737360d81b606082015260800190565b6020808252601f908201527f45524332303a206d696e7420746f20746865207a65726f206164647265737300604082015260600190565b90815260200190565b600082198211156200073e576200073e620008e7565b500190565b80825b600180861162000757575062000787565b8187048211156200076c576200076c620008e7565b808616156200077a57918102915b9490941c93800262000746565b94509492505050565b6000620007a460001960ff851684620007ab565b9392505050565b600082620007bc57506001620007a4565b81620007cb57506000620007a4565b8160018114620007e45760028114620007ef5762000823565b6001915050620007a4565b60ff841115620008035762000803620008e7565b6001841b9150848211156200081c576200081c620008e7565b50620007a4565b5060208310610133831016604e8410600b84101617156200085b575081810a83811115620008555762000855620008e7565b620007a4565b6200086a848484600162000743565b8086048211156200087f576200087f620008e7565b02949350505050565b6000816000190483118215151615620008a557620008a5620008e7565b500290565b600281046001821680620008bf57607f821691505b60208210811415620008e157634e487b7160e01b600052602260045260246000fd5b50919050565b634e487b7160e01b600052601160045260246000fd5b611ed7806200090d6000396000f3fe608060405234801561001057600080fd5b50600436106102485760003560e01c806382537bb51161013b578063c8bc7e71116100b8578063dd62ed3e1161007c578063dd62ed3e14610485578063e1afba7d14610498578063f242cd1c146104ab578063f2fde38b146104b3578063fb919fea146104c657610248565b8063c8bc7e711461043c578063ca5937491461044f578063ceb56e9414610462578063cfa9a3a91461046a578063dd1fdb621461047257610248565b8063979844bd116100ff578063979844bd146103f3578063a457c2d7146103fb578063a55142cd1461040e578063a9059cbb14610416578063c1a9b1a11461042957610248565b806382537bb5146103b557806386d1a69f146103c857806388a1d821146103d05780638da5cb5b146103e357806395d89b41146103eb57610248565b806342966c68116101c9578063693725601161018d578063693725601461037757806370a082311461037f578063715018a61461039257806379cc67901461039a5780637be168be146103ad57610248565b806342966c681461032157806345f31cc41461033457806348deb4711461035457806358c1c6a01461035c57806360de84091461036457610248565b806325bae39f1161021057806325bae39f146102c8578063272a7b27146102d0578063313ce567146102e357806337d2179c146102f8578063395093511461030e57610248565b806306fdde031461024d578063095ea7b31461026b5780630ee9a7a01461028b57806318160ddd146102a057806323b872dd146102b5575b600080fd5b6102556104e6565b60405161026291906116c8565b60405180910390f35b61027e61027936600461164f565b610578565b60405161026291906116bd565b61029e61029936600461164f565b610595565b005b6102a8610643565b6040516102629190611dd1565b61027e6102c3366004611614565b610649565b6102a86106d9565b61029e6102de36600461164f565b6106df565b6102eb610784565b6040516102629190611dda565b610300610789565b6040516102629291906116a4565b61027e61031c36600461164f565b61079e565b61029e61032f366004611678565b6107f2565b610347610342366004611678565b610806565b6040516102629190611690565b6102a8610868565b6102a861086e565b610347610372366004611678565b610874565b6102a86108b9565b6102a861038d3660046115c8565b6108bf565b61029e6108da565b61029e6103a836600461164f565b610925565b610300610978565b61029e6103c336600461164f565b61098d565b61029e610a32565b6103476103de366004611678565b610afa565b610347610b3f565b610255610b4e565b610300610b5d565b61027e61040936600461164f565b610b72565b6102a8610beb565b61027e61042436600461164f565b610bf1565b610347610437366004611678565b610c05565b61034761044a366004611678565b610c4a565b61029e61045d36600461164f565b610c8f565b6102a8610d34565b610300610d3a565b6102a86104803660046115c8565b610d4f565b6102a86104933660046115e2565b610dbb565b61029e6104a636600461164f565b610de6565b610300610e8b565b61029e6104c13660046115c8565b610ea0565b6104d96104d43660046115c8565b610f0e565b6040516102629190611d8b565b6060600480546104f590611e56565b80601f016020809104026020016040519081016040528092919081815260200182805461052190611e56565b801561056e5780601f106105435761010080835404028352916020019161056e565b820191906000526020600020905b81548152906001019060200180831161055157829003601f168201915b5050505050905090565b600061058c610585610f9b565b8484610f9f565b50600192915050565b61059d610f9b565b6001600160a01b03166105ae610b3f565b6001600160a01b0316146105dd5760405162461bcd60e51b81526004016105d490611a7a565b60405180910390fd5b6105f082600d54600e5460085485611053565b50601580546001810182556000919091527f55f448fdea98c4d29eb340757ef0a66cd03dbb9538908a6a81d96026b71ec4750180546001600160a01b0319166001600160a01b0392909216919091179055565b60035490565b6000610656848484611214565b6001600160a01b038416600090815260026020526040812081610677610f9b565b6001600160a01b03166001600160a01b03168152602001908152602001600020549050828110156106ba5760405162461bcd60e51b81526004016105d490611a32565b6106ce856106c6610f9b565b858403610f9f565b506001949350505050565b60155490565b6106e7610f9b565b6001600160a01b03166106f8610b3f565b6001600160a01b03161461071e5760405162461bcd60e51b81526004016105d490611a7a565b61073182600954600a5460085485611053565b50601380546001810182556000919091527f66de8ffda797e3de9c05e8fc57b3bf0ec28a930d40b0d285d93c06501cf6a0900180546001600160a01b0319166001600160a01b0392909216919091179055565b601290565b601e54601f546001600160a01b039091169082565b600061058c6107ab610f9b565b8484600260006107b9610f9b565b6001600160a01b03908116825260208083019390935260409182016000908120918b16815292529020546107ed9190611de8565b610f9f565b6108036107fd610f9b565b8261133e565b50565b601554600090821061082a5760405162461bcd60e51b81526004016105d4906117a0565b6015828154811061084b57634e487b7160e01b600052603260045260246000fd5b6000918252602090912001546001600160a01b031690505b919050565b60075490565b60135490565b60165460009082106108985760405162461bcd60e51b81526004016105d4906117a0565b6016828154811061084b57634e487b7160e01b600052603260045260246000fd5b60145490565b6001600160a01b031660009081526001602052604090205490565b6108e2610f9b565b6001600160a01b03166108f3610b3f565b6001600160a01b0316146109195760405162461bcd60e51b81526004016105d490611a7a565b610923600061142f565b565b600061093383610493610f9b565b9050818110156109555760405162461bcd60e51b81526004016105d490611ae4565b61096983610961610f9b565b848403610f9f565b610973838361133e565b505050565b601c54601d546001600160a01b039091169082565b610995610f9b565b6001600160a01b03166109a6610b3f565b6001600160a01b0316146109cc5760405162461bcd60e51b81526004016105d490611a7a565b6109df82600b54600c5460085485611053565b50601480546001810182556000919091527fce6d7b5282bd9a3661ae061feed1dbda4e52ab073b1f9285be6e155d9c38d4ec0180546001600160a01b0319166001600160a01b0392909216919091179055565b336000818152600660205260409020805460ff16610a625760405162461bcd60e51b81526004016105d490611ca4565b6000610a6d8261147f565b905060008111610a8f5760405162461bcd60e51b81526004016105d4906119dd565b6005820154610a9e9082611549565b6005830155600754610ab09082611555565b600755610abe308483611214565b7ffb81f9b30d73d830c3544b34d827c08142579ee75710b490bab0b3995468c56581604051610aed9190611dd1565b60405180910390a1505050565b6014546000908210610b1e5760405162461bcd60e51b81526004016105d4906117a0565b6014828154811061084b57634e487b7160e01b600052603260045260246000fd5b6000546001600160a01b031690565b6060600580546104f590611e56565b6020546021546001600160a01b039091169082565b60008060026000610b81610f9b565b6001600160a01b0390811682526020808301939093526040918201600090812091881681529252902054905082811015610bcd5760405162461bcd60e51b81526004016105d490611cf8565b610be1610bd8610f9b565b85858403610f9f565b5060019392505050565b60175490565b600061058c610bfe610f9b565b8484611214565b6013546000908210610c295760405162461bcd60e51b81526004016105d4906117a0565b6013828154811061084b57634e487b7160e01b600052603260045260246000fd5b6017546000908210610c6e5760405162461bcd60e51b81526004016105d4906117a0565b6017828154811061084b57634e487b7160e01b600052603260045260246000fd5b610c97610f9b565b6001600160a01b0316610ca8610b3f565b6001600160a01b031614610cce5760405162461bcd60e51b81526004016105d490611a7a565b610ce182600f5460105460085485611053565b50601680546001810182556000919091527fd833147d7dc355ba459fc788f669e58cfaf9dc25ddcd0702e87d69c7b51242890180546001600160a01b0319166001600160a01b0392909216919091179055565b60165490565b601a54601b546001600160a01b039091169082565b6001600160a01b0381166000908152600660205260408120805460ff16610d885760405162461bcd60e51b81526004016105d49061192e565b42816001015410610dab5760405162461bcd60e51b81526004016105d490611d3d565b610db48161147f565b9392505050565b6001600160a01b03918216600090815260026020908152604080832093909416825291909152205490565b610dee610f9b565b6001600160a01b0316610dff610b3f565b6001600160a01b031614610e255760405162461bcd60e51b81526004016105d490611a7a565b610e388260115460125460085485611053565b50601780546001810182556000919091527fc624b66cc0138b8fabc209247f72d758e1cf3343756d543badbf24212bed8c150180546001600160a01b0319166001600160a01b0392909216919091179055565b6018546019546001600160a01b039091169082565b610ea8610f9b565b6001600160a01b0316610eb9610b3f565b6001600160a01b031614610edf5760405162461bcd60e51b81526004016105d490611a7a565b6001600160a01b038116610f055760405162461bcd60e51b81526004016105d4906117cf565b6108038161142f565b610f16611579565b6001600160a01b038216600090815260066020908152604091829020825160c081018452815460ff16151580825260018301549382019390935260028201549381019390935260038101546060840152600481015460808401526005015460a0830152610f955760405162461bcd60e51b81526004016105d49061192e565b92915050565b3390565b6001600160a01b038316610fc55760405162461bcd60e51b81526004016105d490611bf0565b6001600160a01b038216610feb5760405162461bcd60e51b81526004016105d490611815565b6001600160a01b0380841660008181526002602090815260408083209487168084529490915290819020849055517f8c5be1e5ebec7d5bd14f71427d1e84f3dd0314c0f7b2291e5b200ac8c7c3b92590611046908590611dd1565b60405180910390a3505050565b8061105d306108bf565b101561107b5760405162461bcd60e51b81526004016105d490611c34565b6000831161109b5760405162461bcd60e51b81526004016105d490611b28565b600081116110bb5760405162461bcd60e51b81526004016105d490611aaf565b60018210156110dc5760405162461bcd60e51b81526004016105d490611857565b6110e4610643565b6007546110f19083611549565b111561110f5760405162461bcd60e51b81526004016105d4906118ea565b6001600160a01b0385166000908152600660205260409020805460ff16156111495760405162461bcd60e51b81526004016105d490611980565b6040518060c00160405280600115158152602001868152602001858152602001848152602001838152602001600081525060066000886001600160a01b03166001600160a01b0316815260200190815260200160002060008201518160000160006101000a81548160ff0219169083151502179055506020820151816001015560408201518160020155606082015181600301556080820151816004015560a082015181600501559050506112098260075461154990919063ffffffff16565b600755505050505050565b6001600160a01b03831661123a5760405162461bcd60e51b81526004016105d490611bab565b6001600160a01b0382166112605760405162461bcd60e51b81526004016105d49061171b565b61126b838383610973565b6001600160a01b038316600090815260016020526040902054818110156112a45760405162461bcd60e51b81526004016105d4906118a4565b6001600160a01b038085166000908152600160205260408082208585039055918516815290812080548492906112db908490611de8565b92505081905550826001600160a01b0316846001600160a01b03167fddf252ad1be2c89b69c2b068fc378daa952ba7f163c4a11628f55a4df523b3ef846040516113259190611dd1565b60405180910390a3611338848484610973565b50505050565b6001600160a01b0382166113645760405162461bcd60e51b81526004016105d490611b6a565b61137082600083610973565b6001600160a01b038216600090815260016020526040902054818110156113a95760405162461bcd60e51b81526004016105d49061175e565b6001600160a01b03831660009081526001602052604081208383039055600380548492906113d8908490611e3f565b90915550506040516000906001600160a01b038516907fddf252ad1be2c89b69c2b068fc378daa952ba7f163c4a11628f55a4df523b3ef9061141b908690611dd1565b60405180910390a361097383600084610973565b600080546001600160a01b038381166001600160a01b0319831681178455604051919092169283917f8be0079c531659141344cd1fd0a4f28419497f9722a3daafe3b4186f6b6457e09190a35050565b60028101546001820154600091429161149791611549565b81106114b857600583015460048401546114b091611555565b915050610863565b60006114d184600101548361155590919063ffffffff16565b600385015490915060006114e58383611561565b905060006114f3828461156d565b9050600061151c8860020154611516848b6004015461156d90919063ffffffff16565b90611561565b905061153588600501548261155590919063ffffffff16565b965061086395505050505050565b50919050565b6000610db48284611de8565b6000610db48284611e3f565b6000610db48284611e00565b6000610db48284611e20565b6040518060c0016040528060001515815260200160008152602001600081526020016000815260200160008152602001600081525090565b80356001600160a01b038116811461086357600080fd5b6000602082840312156115d9578081fd5b610db4826115b1565b600080604083850312156115f4578081fd5b6115fd836115b1565b915061160b602084016115b1565b90509250929050565b600080600060608486031215611628578081fd5b611631846115b1565b925061163f602085016115b1565b9150604084013590509250925092565b60008060408385031215611661578182fd5b61166a836115b1565b946020939093013593505050565b600060208284031215611689578081fd5b5035919050565b6001600160a01b0391909116815260200190565b6001600160a01b03929092168252602082015260400190565b901515815260200190565b6000602080835283518082850152825b818110156116f4578581018301518582016040015282016116d8565b818111156117055783604083870101525b50601f01601f1916929092016040019392505050565b60208082526023908201527f45524332303a207472616e7366657220746f20746865207a65726f206164647260408201526265737360e81b606082015260800190565b60208082526022908201527f45524332303a206275726e20616d6f756e7420657863656564732062616c616e604082015261636560f01b606082015260800190565b602080825260159082015274092dcecc2d8d2c840c2c8c8e4cae6e640d2dcc8caf605b1b604082015260600190565b60208082526026908201527f4f776e61626c653a206e6577206f776e657220697320746865207a65726f206160408201526564647265737360d01b606082015260800190565b60208082526022908201527f45524332303a20617070726f766520746f20746865207a65726f206164647265604082015261737360f01b606082015260800190565b6020808252602d908201527f546f6b656e56657374696e673a20736c696365506572696f645365636f6e647360408201526c206d757374206265203e3d203160981b606082015260800190565b60208082526026908201527f45524332303a207472616e7366657220616d6f756e7420657863656564732062604082015265616c616e636560d01b606082015260800190565b60208082526024908201527f546f6b656e56657374696e673a206e6f7420656e6f756768206672656520746f6040820152636b656e7360e01b606082015260800190565b60208082526032908201527f546f6b656e56657374696e673a206e6f2076657374696e67207363686564756c6040820152716520666f722074686973206164647265737360701b606082015260800190565b60208082526039908201527f546f6b656e56657374696e673a20746865206164647265737320697320616c7260408201527f6561647920686176652076657374696e672073686564756c6500000000000000606082015260800190565b60208082526035908201527f546f6b656e56657374696e673a2063616e6e6f742072656c6561736520746f6b604082015274656e732c206e6f2076657374656420746f6b656e7360581b606082015260800190565b60208082526028908201527f45524332303a207472616e7366657220616d6f756e74206578636565647320616040820152676c6c6f77616e636560c01b606082015260800190565b6020808252818101527f4f776e61626c653a2063616c6c6572206973206e6f7420746865206f776e6572604082015260600190565b6020808252818101527f546f6b656e56657374696e673a20616d6f756e74206d757374206265203e2030604082015260600190565b60208082526024908201527f45524332303a206275726e20616d6f756e74206578636565647320616c6c6f77604082015263616e636560e01b606082015260800190565b60208082526022908201527f546f6b656e56657374696e673a206475726174696f6e206d757374206265203e604082015261020360f41b606082015260800190565b60208082526021908201527f45524332303a206275726e2066726f6d20746865207a65726f206164647265736040820152607360f81b606082015260800190565b60208082526025908201527f45524332303a207472616e736665722066726f6d20746865207a65726f206164604082015264647265737360d81b606082015260800190565b60208082526024908201527f45524332303a20617070726f76652066726f6d20746865207a65726f206164646040820152637265737360e01b606082015260800190565b6020808252604a908201527f546f6b656e56657374696e673a2063616e6e6f7420637265617465207665737460408201527f696e67207363686564756c652062656361757365206e6f742073756666696369606082015269656e7420746f6b656e7360b01b608082015260a00190565b60208082526034908201527f546f6b656e56657374696e673a206e6f2076657374696e67207363686564756c60408201527332903337b91031bab93932b73a1039b2b73232b960611b606082015260800190565b60208082526025908201527f45524332303a2064656372656173656420616c6c6f77616e63652062656c6f77604082015264207a65726f60d81b606082015260800190565b6020808252602e908201527f546f6b656e56657374696e673a20746869732076657473696e6720686173206e60408201526d1bdd081cdd185c9d1959081e595d60921b606082015260800190565b600060c0820190508251151582526020830151602083015260408301516040830152606083015160608301526080830151608083015260a083015160a083015292915050565b90815260200190565b60ff91909116815260200190565b60008219821115611dfb57611dfb611e8b565b500190565b600082611e1b57634e487b7160e01b81526012600452602481fd5b500490565b6000816000190483118215151615611e3a57611e3a611e8b565b500290565b600082821015611e5157611e51611e8b565b500390565b600281046001821680611e6a57607f821691505b6020821081141561154357634e487b7160e01b600052602260045260246000fd5b634e487b7160e01b600052601160045260246000fdfea2646970667358221220a4d63abc835ca3dbb41ce1230733c6a32455ff3784f87181570e1f82b07aaba764736f6c63430008000033ddf252ad1be2c89b69c2b068fc378daa952ba7f163c4a11628f55a4df523b3ef",
			"opcodes": "PUSH1 0x80 PUSH1 0x40 MSTORE PUSH3 0x278D00 PUSH1 0x8 SSTORE PUSH4 0x62157900 PUSH1 0x9 SSTORE PUSH4 0x1E13380 PUSH1 0xA SSTORE PUSH4 0x63F6AC80 PUSH1 0xB SSTORE PUSH4 0x641CE80 PUSH1 0xC SSTORE PUSH4 0x623A6300 PUSH1 0xD SSTORE PUSH4 0x7861F80 PUSH1 0xE SSTORE PUSH4 0x62157900 PUSH1 0xF SSTORE PUSH4 0x31D9B80 PUSH1 0x10 SSTORE PUSH4 0x62157900 PUSH1 0x11 SSTORE PUSH4 0x1E13380 PUSH1 0x12 SSTORE CALLVALUE DUP1 ISZERO PUSH3 0x68 JUMPI PUSH1 0x0 DUP1 REVERT JUMPDEST POP PUSH1 0x40 MLOAD PUSH3 0x2804 CODESIZE SUB DUP1 PUSH3 0x2804 DUP4 CODECOPY DUP2 ADD PUSH1 0x40 DUP2 SWAP1 MSTORE PUSH3 0x8B SWAP2 PUSH3 0x579 JUMP JUMPDEST PUSH1 0x40 MLOAD DUP1 PUSH1 0x40 ADD PUSH1 0x40 MSTORE DUP1 PUSH1 0xE DUP2 MSTORE PUSH1 0x20 ADD PUSH14 0x2A30B632B99037B31021B430B4B7 PUSH1 0x91 SHL DUP2 MSTORE POP PUSH1 0x40 MLOAD DUP1 PUSH1 0x40 ADD PUSH1 0x40 MSTORE DUP1 PUSH1 0x4 DUP2 MSTORE PUSH1 0x20 ADD PUSH4 0x54414C45 PUSH1 0xE0 SHL DUP2 MSTORE POP PUSH3 0xE9 PUSH3 0xE3 PUSH3 0x25D PUSH1 0x20 SHL PUSH1 0x20 SHR JUMP JUMPDEST PUSH3 0x261 JUMP JUMPDEST DUP2 MLOAD PUSH3 0xFE SWAP1 PUSH1 0x4 SWAP1 PUSH1 0x20 DUP6 ADD SWAP1 PUSH3 0x4B6 JUMP JUMPDEST POP DUP1 MLOAD PUSH3 0x114 SWAP1 PUSH1 0x5 SWAP1 PUSH1 0x20 DUP5 ADD SWAP1 PUSH3 0x4B6 JUMP JUMPDEST POP POP POP PUSH3 0x14F ADDRESS PUSH3 0x12C PUSH3 0x2B1 PUSH1 0x20 SHL PUSH1 0x20 SHR JUMP JUMPDEST PUSH3 0x139 SWAP1 PUSH1 0xA PUSH3 0x790 JUMP JUMPDEST PUSH3 0x149 SWAP1 PUSH4 0x77359400 PUSH3 0x888 JUMP JUMPDEST PUSH3 0x2B6 JUMP JUMPDEST PUSH3 0x15C ADDRESS DUP12 DUP12 PUSH3 0x387 JUMP JUMPDEST PUSH3 0x169 ADDRESS DUP10 DUP10 PUSH3 0x387 JUMP JUMPDEST PUSH3 0x176 ADDRESS DUP8 DUP8 PUSH3 0x387 JUMP JUMPDEST PUSH3 0x183 ADDRESS DUP6 DUP6 PUSH3 0x387 JUMP JUMPDEST PUSH3 0x190 ADDRESS DUP4 DUP4 PUSH3 0x387 JUMP JUMPDEST PUSH1 0x40 DUP1 MLOAD DUP1 DUP3 ADD DUP3 MSTORE PUSH1 0x1 PUSH1 0x1 PUSH1 0xA0 SHL SUB SWAP12 DUP13 AND DUP1 DUP3 MSTORE PUSH1 0x20 SWAP2 DUP3 ADD DUP13 SWAP1 MSTORE PUSH1 0x18 DUP1 SLOAD PUSH1 0x1 PUSH1 0x1 PUSH1 0xA0 SHL SUB NOT SWAP1 DUP2 AND SWAP1 SWAP3 OR SWAP1 SSTORE PUSH1 0x19 SWAP12 SWAP1 SWAP12 SSTORE DUP2 MLOAD DUP1 DUP4 ADD DUP4 MSTORE SWAP10 DUP13 AND DUP1 DUP12 MSTORE SWAP10 DUP2 ADD DUP10 SWAP1 MSTORE PUSH1 0x1A DUP1 SLOAD DUP13 AND SWAP1 SWAP11 OR SWAP1 SWAP10 SSTORE PUSH1 0x1B SWAP8 SWAP1 SWAP8 SSTORE DUP7 MLOAD DUP1 DUP9 ADD DUP9 MSTORE SWAP6 DUP11 AND DUP1 DUP8 MSTORE SWAP6 DUP9 ADD DUP6 SWAP1 MSTORE PUSH1 0x1C DUP1 SLOAD DUP11 AND SWAP1 SWAP7 OR SWAP1 SWAP6 SSTORE PUSH1 0x1D SWAP4 SWAP1 SWAP4 SSTORE DUP5 MLOAD DUP1 DUP7 ADD DUP7 MSTORE SWAP2 DUP9 AND DUP1 DUP4 MSTORE SWAP2 DUP7 ADD DUP2 SWAP1 MSTORE PUSH1 0x1E DUP1 SLOAD DUP9 AND SWAP1 SWAP3 OR SWAP1 SWAP2 SSTORE PUSH1 0x1F SSTORE DUP3 MLOAD DUP1 DUP5 ADD SWAP1 SWAP4 MSTORE SWAP1 SWAP5 AND DUP1 DUP3 MSTORE SWAP1 DUP3 ADD DUP5 SWAP1 MSTORE DUP2 SLOAD SWAP1 SWAP3 AND SWAP1 SWAP2 OR SWAP1 SSTORE PUSH1 0x21 SSTORE PUSH3 0x8FD JUMP JUMPDEST CALLER SWAP1 JUMP JUMPDEST PUSH1 0x0 DUP1 SLOAD PUSH1 0x1 PUSH1 0x1 PUSH1 0xA0 SHL SUB DUP4 DUP2 AND PUSH1 0x1 PUSH1 0x1 PUSH1 0xA0 SHL SUB NOT DUP4 AND DUP2 OR DUP5 SSTORE PUSH1 0x40 MLOAD SWAP2 SWAP1 SWAP3 AND SWAP3 DUP4 SWAP2 PUSH32 0x8BE0079C531659141344CD1FD0A4F28419497F9722A3DAAFE3B4186F6B6457E0 SWAP2 SWAP1 LOG3 POP POP JUMP JUMPDEST PUSH1 0x12 SWAP1 JUMP JUMPDEST PUSH1 0x1 PUSH1 0x1 PUSH1 0xA0 SHL SUB DUP3 AND PUSH3 0x2E8 JUMPI PUSH1 0x40 MLOAD PUSH3 0x461BCD PUSH1 0xE5 SHL DUP2 MSTORE PUSH1 0x4 ADD PUSH3 0x2DF SWAP1 PUSH3 0x6E8 JUMP JUMPDEST PUSH1 0x40 MLOAD DUP1 SWAP2 SUB SWAP1 REVERT JUMPDEST PUSH3 0x2F6 PUSH1 0x0 DUP4 DUP4 PUSH3 0x4B1 JUMP JUMPDEST DUP1 PUSH1 0x3 PUSH1 0x0 DUP3 DUP3 SLOAD PUSH3 0x30A SWAP2 SWAP1 PUSH3 0x728 JUMP JUMPDEST SWAP1 SWAP2 SSTORE POP POP PUSH1 0x1 PUSH1 0x1 PUSH1 0xA0 SHL SUB DUP3 AND PUSH1 0x0 SWAP1 DUP2 MSTORE PUSH1 0x1 PUSH1 0x20 MSTORE PUSH1 0x40 DUP2 KECCAK256 DUP1 SLOAD DUP4 SWAP3 SWAP1 PUSH3 0x339 SWAP1 DUP5 SWAP1 PUSH3 0x728 JUMP JUMPDEST SWAP1 SWAP2 SSTORE POP POP PUSH1 0x40 MLOAD PUSH1 0x1 PUSH1 0x1 PUSH1 0xA0 SHL SUB DUP4 AND SWAP1 PUSH1 0x0 SWAP1 PUSH1 0x0 DUP1 MLOAD PUSH1 0x20 PUSH3 0x27E4 DUP4 CODECOPY DUP2 MLOAD SWAP2 MSTORE SWAP1 PUSH3 0x36D SWAP1 DUP6 SWAP1 PUSH3 0x71F JUMP JUMPDEST PUSH1 0x40 MLOAD DUP1 SWAP2 SUB SWAP1 LOG3 PUSH3 0x383 PUSH1 0x0 DUP4 DUP4 PUSH3 0x4B1 JUMP JUMPDEST POP POP JUMP JUMPDEST PUSH1 0x1 PUSH1 0x1 PUSH1 0xA0 SHL SUB DUP4 AND PUSH3 0x3B0 JUMPI PUSH1 0x40 MLOAD PUSH3 0x461BCD PUSH1 0xE5 SHL DUP2 MSTORE PUSH1 0x4 ADD PUSH3 0x2DF SWAP1 PUSH3 0x6A3 JUMP JUMPDEST PUSH1 0x1 PUSH1 0x1 PUSH1 0xA0 SHL SUB DUP3 AND PUSH3 0x3D9 JUMPI PUSH1 0x40 MLOAD PUSH3 0x461BCD PUSH1 0xE5 SHL DUP2 MSTORE PUSH1 0x4 ADD PUSH3 0x2DF SWAP1 PUSH3 0x61A JUMP JUMPDEST PUSH3 0x3E6 DUP4 DUP4 DUP4 PUSH3 0x4B1 JUMP JUMPDEST PUSH1 0x1 PUSH1 0x1 PUSH1 0xA0 SHL SUB DUP4 AND PUSH1 0x0 SWAP1 DUP2 MSTORE PUSH1 0x1 PUSH1 0x20 MSTORE PUSH1 0x40 SWAP1 KECCAK256 SLOAD DUP2 DUP2 LT ISZERO PUSH3 0x422 JUMPI PUSH1 0x40 MLOAD PUSH3 0x461BCD PUSH1 0xE5 SHL DUP2 MSTORE PUSH1 0x4 ADD PUSH3 0x2DF SWAP1 PUSH3 0x65D JUMP JUMPDEST PUSH1 0x1 PUSH1 0x1 PUSH1 0xA0 SHL SUB DUP1 DUP6 AND PUSH1 0x0 SWAP1 DUP2 MSTORE PUSH1 0x1 PUSH1 0x20 MSTORE PUSH1 0x40 DUP1 DUP3 KECCAK256 DUP6 DUP6 SUB SWAP1 SSTORE SWAP2 DUP6 AND DUP2 MSTORE SWAP1 DUP2 KECCAK256 DUP1 SLOAD DUP5 SWAP3 SWAP1 PUSH3 0x45B SWAP1 DUP5 SWAP1 PUSH3 0x728 JUMP JUMPDEST SWAP3 POP POP DUP2 SWAP1 SSTORE POP DUP3 PUSH1 0x1 PUSH1 0x1 PUSH1 0xA0 SHL SUB AND DUP5 PUSH1 0x1 PUSH1 0x1 PUSH1 0xA0 SHL SUB AND PUSH1 0x0 DUP1 MLOAD PUSH1 0x20 PUSH3 0x27E4 DUP4 CODECOPY DUP2 MLOAD SWAP2 MSTORE DUP5 PUSH1 0x40 MLOAD PUSH3 0x496 SWAP2 SWAP1 PUSH3 0x71F JUMP JUMPDEST PUSH1 0x40 MLOAD DUP1 SWAP2 SUB SWAP1 LOG3 PUSH3 0x4AB DUP5 DUP5 DUP5 PUSH3 0x4B1 JUMP JUMPDEST POP POP POP POP JUMP JUMPDEST POP POP POP JUMP JUMPDEST DUP3 DUP1 SLOAD PUSH3 0x4C4 SWAP1 PUSH3 0x8AA JUMP JUMPDEST SWAP1 PUSH1 0x0 MSTORE PUSH1 0x20 PUSH1 0x0 KECCAK256 SWAP1 PUSH1 0x1F ADD PUSH1 0x20 SWAP1 DIV DUP2 ADD SWAP3 DUP3 PUSH3 0x4E8 JUMPI PUSH1 0x0 DUP6 SSTORE PUSH3 0x533 JUMP JUMPDEST DUP3 PUSH1 0x1F LT PUSH3 0x503 JUMPI DUP1 MLOAD PUSH1 0xFF NOT AND DUP4 DUP1 ADD OR DUP6 SSTORE PUSH3 0x533 JUMP JUMPDEST DUP3 DUP1 ADD PUSH1 0x1 ADD DUP6 SSTORE DUP3 ISZERO PUSH3 0x533 JUMPI SWAP2 DUP3 ADD JUMPDEST DUP3 DUP2 GT ISZERO PUSH3 0x533 JUMPI DUP3 MLOAD DUP3 SSTORE SWAP2 PUSH1 0x20 ADD SWAP2 SWAP1 PUSH1 0x1 ADD SWAP1 PUSH3 0x516 JUMP JUMPDEST POP PUSH3 0x541 SWAP3 SWAP2 POP PUSH3 0x545 JUMP JUMPDEST POP SWAP1 JUMP JUMPDEST JUMPDEST DUP1 DUP3 GT ISZERO PUSH3 0x541 JUMPI PUSH1 0x0 DUP2 SSTORE PUSH1 0x1 ADD PUSH3 0x546 JUMP JUMPDEST DUP1 MLOAD PUSH1 0x1 PUSH1 0x1 PUSH1 0xA0 SHL SUB DUP2 AND DUP2 EQ PUSH3 0x574 JUMPI PUSH1 0x0 DUP1 REVERT JUMPDEST SWAP2 SWAP1 POP JUMP JUMPDEST PUSH1 0x0 DUP1 PUSH1 0x0 DUP1 PUSH1 0x0 DUP1 PUSH1 0x0 DUP1 PUSH1 0x0 DUP1 PUSH2 0x140 DUP12 DUP14 SUB SLT ISZERO PUSH3 0x599 JUMPI DUP6 DUP7 REVERT JUMPDEST PUSH3 0x5A4 DUP12 PUSH3 0x55C JUMP JUMPDEST SWAP10 POP PUSH1 0x20 DUP12 ADD MLOAD SWAP9 POP PUSH3 0x5BB PUSH1 0x40 DUP13 ADD PUSH3 0x55C JUMP JUMPDEST SWAP8 POP PUSH1 0x60 DUP12 ADD MLOAD SWAP7 POP PUSH3 0x5D2 PUSH1 0x80 DUP13 ADD PUSH3 0x55C JUMP JUMPDEST SWAP6 POP PUSH1 0xA0 DUP12 ADD MLOAD SWAP5 POP PUSH3 0x5E9 PUSH1 0xC0 DUP13 ADD PUSH3 0x55C JUMP JUMPDEST SWAP4 POP PUSH1 0xE0 DUP12 ADD MLOAD SWAP3 POP PUSH3 0x601 PUSH2 0x100 DUP13 ADD PUSH3 0x55C JUMP JUMPDEST SWAP2 POP PUSH2 0x120 DUP12 ADD MLOAD SWAP1 POP SWAP3 SWAP6 SWAP9 SWAP12 SWAP2 SWAP5 SWAP8 SWAP11 POP SWAP3 SWAP6 SWAP9 POP JUMP JUMPDEST PUSH1 0x20 DUP1 DUP3 MSTORE PUSH1 0x23 SWAP1 DUP3 ADD MSTORE PUSH32 0x45524332303A207472616E7366657220746F20746865207A65726F2061646472 PUSH1 0x40 DUP3 ADD MSTORE PUSH3 0x657373 PUSH1 0xE8 SHL PUSH1 0x60 DUP3 ADD MSTORE PUSH1 0x80 ADD SWAP1 JUMP JUMPDEST PUSH1 0x20 DUP1 DUP3 MSTORE PUSH1 0x26 SWAP1 DUP3 ADD MSTORE PUSH32 0x45524332303A207472616E7366657220616D6F756E7420657863656564732062 PUSH1 0x40 DUP3 ADD MSTORE PUSH6 0x616C616E6365 PUSH1 0xD0 SHL PUSH1 0x60 DUP3 ADD MSTORE PUSH1 0x80 ADD SWAP1 JUMP JUMPDEST PUSH1 0x20 DUP1 DUP3 MSTORE PUSH1 0x25 SWAP1 DUP3 ADD MSTORE PUSH32 0x45524332303A207472616E736665722066726F6D20746865207A65726F206164 PUSH1 0x40 DUP3 ADD MSTORE PUSH5 0x6472657373 PUSH1 0xD8 SHL PUSH1 0x60 DUP3 ADD MSTORE PUSH1 0x80 ADD SWAP1 JUMP JUMPDEST PUSH1 0x20 DUP1 DUP3 MSTORE PUSH1 0x1F SWAP1 DUP3 ADD MSTORE PUSH32 0x45524332303A206D696E7420746F20746865207A65726F206164647265737300 PUSH1 0x40 DUP3 ADD MSTORE PUSH1 0x60 ADD SWAP1 JUMP JUMPDEST SWAP1 DUP2 MSTORE PUSH1 0x20 ADD SWAP1 JUMP JUMPDEST PUSH1 0x0 DUP3 NOT DUP3 GT ISZERO PUSH3 0x73E JUMPI PUSH3 0x73E PUSH3 0x8E7 JUMP JUMPDEST POP ADD SWAP1 JUMP JUMPDEST DUP1 DUP3 JUMPDEST PUSH1 0x1 DUP1 DUP7 GT PUSH3 0x757 JUMPI POP PUSH3 0x787 JUMP JUMPDEST DUP2 DUP8 DIV DUP3 GT ISZERO PUSH3 0x76C JUMPI PUSH3 0x76C PUSH3 0x8E7 JUMP JUMPDEST DUP1 DUP7 AND ISZERO PUSH3 0x77A JUMPI SWAP2 DUP2 MUL SWAP2 JUMPDEST SWAP5 SWAP1 SWAP5 SHR SWAP4 DUP1 MUL PUSH3 0x746 JUMP JUMPDEST SWAP5 POP SWAP5 SWAP3 POP POP POP JUMP JUMPDEST PUSH1 0x0 PUSH3 0x7A4 PUSH1 0x0 NOT PUSH1 0xFF DUP6 AND DUP5 PUSH3 0x7AB JUMP JUMPDEST SWAP4 SWAP3 POP POP POP JUMP JUMPDEST PUSH1 0x0 DUP3 PUSH3 0x7BC JUMPI POP PUSH1 0x1 PUSH3 0x7A4 JUMP JUMPDEST DUP2 PUSH3 0x7CB JUMPI POP PUSH1 0x0 PUSH3 0x7A4 JUMP JUMPDEST DUP2 PUSH1 0x1 DUP2 EQ PUSH3 0x7E4 JUMPI PUSH1 0x2 DUP2 EQ PUSH3 0x7EF JUMPI PUSH3 0x823 JUMP JUMPDEST PUSH1 0x1 SWAP2 POP POP PUSH3 0x7A4 JUMP JUMPDEST PUSH1 0xFF DUP5 GT ISZERO PUSH3 0x803 JUMPI PUSH3 0x803 PUSH3 0x8E7 JUMP JUMPDEST PUSH1 0x1 DUP5 SHL SWAP2 POP DUP5 DUP3 GT ISZERO PUSH3 0x81C JUMPI PUSH3 0x81C PUSH3 0x8E7 JUMP JUMPDEST POP PUSH3 0x7A4 JUMP JUMPDEST POP PUSH1 0x20 DUP4 LT PUSH2 0x133 DUP4 LT AND PUSH1 0x4E DUP5 LT PUSH1 0xB DUP5 LT AND OR ISZERO PUSH3 0x85B JUMPI POP DUP2 DUP2 EXP DUP4 DUP2 GT ISZERO PUSH3 0x855 JUMPI PUSH3 0x855 PUSH3 0x8E7 JUMP JUMPDEST PUSH3 0x7A4 JUMP JUMPDEST PUSH3 0x86A DUP5 DUP5 DUP5 PUSH1 0x1 PUSH3 0x743 JUMP JUMPDEST DUP1 DUP7 DIV DUP3 GT ISZERO PUSH3 0x87F JUMPI PUSH3 0x87F PUSH3 0x8E7 JUMP JUMPDEST MUL SWAP5 SWAP4 POP POP POP POP JUMP JUMPDEST PUSH1 0x0 DUP2 PUSH1 0x0 NOT DIV DUP4 GT DUP3 ISZERO ISZERO AND ISZERO PUSH3 0x8A5 JUMPI PUSH3 0x8A5 PUSH3 0x8E7 JUMP JUMPDEST POP MUL SWAP1 JUMP JUMPDEST PUSH1 0x2 DUP2 DIV PUSH1 0x1 DUP3 AND DUP1 PUSH3 0x8BF JUMPI PUSH1 0x7F DUP3 AND SWAP2 POP JUMPDEST PUSH1 0x20 DUP3 LT DUP2 EQ ISZERO PUSH3 0x8E1 JUMPI PUSH4 0x4E487B71 PUSH1 0xE0 SHL PUSH1 0x0 MSTORE PUSH1 0x22 PUSH1 0x4 MSTORE PUSH1 0x24 PUSH1 0x0 REVERT JUMPDEST POP SWAP2 SWAP1 POP JUMP JUMPDEST PUSH4 0x4E487B71 PUSH1 0xE0 SHL PUSH1 0x0 MSTORE PUSH1 0x11 PUSH1 0x4 MSTORE PUSH1 0x24 PUSH1 0x0 REVERT JUMPDEST PUSH2 0x1ED7 DUP1 PUSH3 0x90D PUSH1 0x0 CODECOPY PUSH1 0x0 RETURN INVALID PUSH1 0x80 PUSH1 0x40 MSTORE CALLVALUE DUP1 ISZERO PUSH2 0x10 JUMPI PUSH1 0x0 DUP1 REVERT JUMPDEST POP PUSH1 0x4 CALLDATASIZE LT PUSH2 0x248 JUMPI PUSH1 0x0 CALLDATALOAD PUSH1 0xE0 SHR DUP1 PUSH4 0x82537BB5 GT PUSH2 0x13B JUMPI DUP1 PUSH4 0xC8BC7E71 GT PUSH2 0xB8 JUMPI DUP1 PUSH4 0xDD62ED3E GT PUSH2 0x7C JUMPI DUP1 PUSH4 0xDD62ED3E EQ PUSH2 0x485 JUMPI DUP1 PUSH4 0xE1AFBA7D EQ PUSH2 0x498 JUMPI DUP1 PUSH4 0xF242CD1C EQ PUSH2 0x4AB JUMPI DUP1 PUSH4 0xF2FDE38B EQ PUSH2 0x4B3 JUMPI DUP1 PUSH4 0xFB919FEA EQ PUSH2 0x4C6 JUMPI PUSH2 0x248 JUMP JUMPDEST DUP1 PUSH4 0xC8BC7E71 EQ PUSH2 0x43C JUMPI DUP1 PUSH4 0xCA593749 EQ PUSH2 0x44F JUMPI DUP1 PUSH4 0xCEB56E94 EQ PUSH2 0x462 JUMPI DUP1 PUSH4 0xCFA9A3A9 EQ PUSH2 0x46A JUMPI DUP1 PUSH4 0xDD1FDB62 EQ PUSH2 0x472 JUMPI PUSH2 0x248 JUMP JUMPDEST DUP1 PUSH4 0x979844BD GT PUSH2 0xFF JUMPI DUP1 PUSH4 0x979844BD EQ PUSH2 0x3F3 JUMPI DUP1 PUSH4 0xA457C2D7 EQ PUSH2 0x3FB JUMPI DUP1 PUSH4 0xA55142CD EQ PUSH2 0x40E JUMPI DUP1 PUSH4 0xA9059CBB EQ PUSH2 0x416 JUMPI DUP1 PUSH4 0xC1A9B1A1 EQ PUSH2 0x429 JUMPI PUSH2 0x248 JUMP JUMPDEST DUP1 PUSH4 0x82537BB5 EQ PUSH2 0x3B5 JUMPI DUP1 PUSH4 0x86D1A69F EQ PUSH2 0x3C8 JUMPI DUP1 PUSH4 0x88A1D821 EQ PUSH2 0x3D0 JUMPI DUP1 PUSH4 0x8DA5CB5B EQ PUSH2 0x3E3 JUMPI DUP1 PUSH4 0x95D89B41 EQ PUSH2 0x3EB JUMPI PUSH2 0x248 JUMP JUMPDEST DUP1 PUSH4 0x42966C68 GT PUSH2 0x1C9 JUMPI DUP1 PUSH4 0x69372560 GT PUSH2 0x18D JUMPI DUP1 PUSH4 0x69372560 EQ PUSH2 0x377 JUMPI DUP1 PUSH4 0x70A08231 EQ PUSH2 0x37F JUMPI DUP1 PUSH4 0x715018A6 EQ PUSH2 0x392 JUMPI DUP1 PUSH4 0x79CC6790 EQ PUSH2 0x39A JUMPI DUP1 PUSH4 0x7BE168BE EQ PUSH2 0x3AD JUMPI PUSH2 0x248 JUMP JUMPDEST DUP1 PUSH4 0x42966C68 EQ PUSH2 0x321 JUMPI DUP1 PUSH4 0x45F31CC4 EQ PUSH2 0x334 JUMPI DUP1 PUSH4 0x48DEB471 EQ PUSH2 0x354 JUMPI DUP1 PUSH4 0x58C1C6A0 EQ PUSH2 0x35C JUMPI DUP1 PUSH4 0x60DE8409 EQ PUSH2 0x364 JUMPI PUSH2 0x248 JUMP JUMPDEST DUP1 PUSH4 0x25BAE39F GT PUSH2 0x210 JUMPI DUP1 PUSH4 0x25BAE39F EQ PUSH2 0x2C8 JUMPI DUP1 PUSH4 0x272A7B27 EQ PUSH2 0x2D0 JUMPI DUP1 PUSH4 0x313CE567 EQ PUSH2 0x2E3 JUMPI DUP1 PUSH4 0x37D2179C EQ PUSH2 0x2F8 JUMPI DUP1 PUSH4 0x39509351 EQ PUSH2 0x30E JUMPI PUSH2 0x248 JUMP JUMPDEST DUP1 PUSH4 0x6FDDE03 EQ PUSH2 0x24D JUMPI DUP1 PUSH4 0x95EA7B3 EQ PUSH2 0x26B JUMPI DUP1 PUSH4 0xEE9A7A0 EQ PUSH2 0x28B JUMPI DUP1 PUSH4 0x18160DDD EQ PUSH2 0x2A0 JUMPI DUP1 PUSH4 0x23B872DD EQ PUSH2 0x2B5 JUMPI JUMPDEST PUSH1 0x0 DUP1 REVERT JUMPDEST PUSH2 0x255 PUSH2 0x4E6 JUMP JUMPDEST PUSH1 0x40 MLOAD PUSH2 0x262 SWAP2 SWAP1 PUSH2 0x16C8 JUMP JUMPDEST PUSH1 0x40 MLOAD DUP1 SWAP2 SUB SWAP1 RETURN JUMPDEST PUSH2 0x27E PUSH2 0x279 CALLDATASIZE PUSH1 0x4 PUSH2 0x164F JUMP JUMPDEST PUSH2 0x578 JUMP JUMPDEST PUSH1 0x40 MLOAD PUSH2 0x262 SWAP2 SWAP1 PUSH2 0x16BD JUMP JUMPDEST PUSH2 0x29E PUSH2 0x299 CALLDATASIZE PUSH1 0x4 PUSH2 0x164F JUMP JUMPDEST PUSH2 0x595 JUMP JUMPDEST STOP JUMPDEST PUSH2 0x2A8 PUSH2 0x643 JUMP JUMPDEST PUSH1 0x40 MLOAD PUSH2 0x262 SWAP2 SWAP1 PUSH2 0x1DD1 JUMP JUMPDEST PUSH2 0x27E PUSH2 0x2C3 CALLDATASIZE PUSH1 0x4 PUSH2 0x1614 JUMP JUMPDEST PUSH2 0x649 JUMP JUMPDEST PUSH2 0x2A8 PUSH2 0x6D9 JUMP JUMPDEST PUSH2 0x29E PUSH2 0x2DE CALLDATASIZE PUSH1 0x4 PUSH2 0x164F JUMP JUMPDEST PUSH2 0x6DF JUMP JUMPDEST PUSH2 0x2EB PUSH2 0x784 JUMP JUMPDEST PUSH1 0x40 MLOAD PUSH2 0x262 SWAP2 SWAP1 PUSH2 0x1DDA JUMP JUMPDEST PUSH2 0x300 PUSH2 0x789 JUMP JUMPDEST PUSH1 0x40 MLOAD PUSH2 0x262 SWAP3 SWAP2 SWAP1 PUSH2 0x16A4 JUMP JUMPDEST PUSH2 0x27E PUSH2 0x31C CALLDATASIZE PUSH1 0x4 PUSH2 0x164F JUMP JUMPDEST PUSH2 0x79E JUMP JUMPDEST PUSH2 0x29E PUSH2 0x32F CALLDATASIZE PUSH1 0x4 PUSH2 0x1678 JUMP JUMPDEST PUSH2 0x7F2 JUMP JUMPDEST PUSH2 0x347 PUSH2 0x342 CALLDATASIZE PUSH1 0x4 PUSH2 0x1678 JUMP JUMPDEST PUSH2 0x806 JUMP JUMPDEST PUSH1 0x40 MLOAD PUSH2 0x262 SWAP2 SWAP1 PUSH2 0x1690 JUMP JUMPDEST PUSH2 0x2A8 PUSH2 0x868 JUMP JUMPDEST PUSH2 0x2A8 PUSH2 0x86E JUMP JUMPDEST PUSH2 0x347 PUSH2 0x372 CALLDATASIZE PUSH1 0x4 PUSH2 0x1678 JUMP JUMPDEST PUSH2 0x874 JUMP JUMPDEST PUSH2 0x2A8 PUSH2 0x8B9 JUMP JUMPDEST PUSH2 0x2A8 PUSH2 0x38D CALLDATASIZE PUSH1 0x4 PUSH2 0x15C8 JUMP JUMPDEST PUSH2 0x8BF JUMP JUMPDEST PUSH2 0x29E PUSH2 0x8DA JUMP JUMPDEST PUSH2 0x29E PUSH2 0x3A8 CALLDATASIZE PUSH1 0x4 PUSH2 0x164F JUMP JUMPDEST PUSH2 0x925 JUMP JUMPDEST PUSH2 0x300 PUSH2 0x978 JUMP JUMPDEST PUSH2 0x29E PUSH2 0x3C3 CALLDATASIZE PUSH1 0x4 PUSH2 0x164F JUMP JUMPDEST PUSH2 0x98D JUMP JUMPDEST PUSH2 0x29E PUSH2 0xA32 JUMP JUMPDEST PUSH2 0x347 PUSH2 0x3DE CALLDATASIZE PUSH1 0x4 PUSH2 0x1678 JUMP JUMPDEST PUSH2 0xAFA JUMP JUMPDEST PUSH2 0x347 PUSH2 0xB3F JUMP JUMPDEST PUSH2 0x255 PUSH2 0xB4E JUMP JUMPDEST PUSH2 0x300 PUSH2 0xB5D JUMP JUMPDEST PUSH2 0x27E PUSH2 0x409 CALLDATASIZE PUSH1 0x4 PUSH2 0x164F JUMP JUMPDEST PUSH2 0xB72 JUMP JUMPDEST PUSH2 0x2A8 PUSH2 0xBEB JUMP JUMPDEST PUSH2 0x27E PUSH2 0x424 CALLDATASIZE PUSH1 0x4 PUSH2 0x164F JUMP JUMPDEST PUSH2 0xBF1 JUMP JUMPDEST PUSH2 0x347 PUSH2 0x437 CALLDATASIZE PUSH1 0x4 PUSH2 0x1678 JUMP JUMPDEST PUSH2 0xC05 JUMP JUMPDEST PUSH2 0x347 PUSH2 0x44A CALLDATASIZE PUSH1 0x4 PUSH2 0x1678 JUMP JUMPDEST PUSH2 0xC4A JUMP JUMPDEST PUSH2 0x29E PUSH2 0x45D CALLDATASIZE PUSH1 0x4 PUSH2 0x164F JUMP JUMPDEST PUSH2 0xC8F JUMP JUMPDEST PUSH2 0x2A8 PUSH2 0xD34 JUMP JUMPDEST PUSH2 0x300 PUSH2 0xD3A JUMP JUMPDEST PUSH2 0x2A8 PUSH2 0x480 CALLDATASIZE PUSH1 0x4 PUSH2 0x15C8 JUMP JUMPDEST PUSH2 0xD4F JUMP JUMPDEST PUSH2 0x2A8 PUSH2 0x493 CALLDATASIZE PUSH1 0x4 PUSH2 0x15E2 JUMP JUMPDEST PUSH2 0xDBB JUMP JUMPDEST PUSH2 0x29E PUSH2 0x4A6 CALLDATASIZE PUSH1 0x4 PUSH2 0x164F JUMP JUMPDEST PUSH2 0xDE6 JUMP JUMPDEST PUSH2 0x300 PUSH2 0xE8B JUMP JUMPDEST PUSH2 0x29E PUSH2 0x4C1 CALLDATASIZE PUSH1 0x4 PUSH2 0x15C8 JUMP JUMPDEST PUSH2 0xEA0 JUMP JUMPDEST PUSH2 0x4D9 PUSH2 0x4D4 CALLDATASIZE PUSH1 0x4 PUSH2 0x15C8 JUMP JUMPDEST PUSH2 0xF0E JUMP JUMPDEST PUSH1 0x40 MLOAD PUSH2 0x262 SWAP2 SWAP1 PUSH2 0x1D8B JUMP JUMPDEST PUSH1 0x60 PUSH1 0x4 DUP1 SLOAD PUSH2 0x4F5 SWAP1 PUSH2 0x1E56 JUMP JUMPDEST DUP1 PUSH1 0x1F ADD PUSH1 0x20 DUP1 SWAP2 DIV MUL PUSH1 0x20 ADD PUSH1 0x40 MLOAD SWAP1 DUP2 ADD PUSH1 0x40 MSTORE DUP1 SWAP3 SWAP2 SWAP1 DUP2 DUP2 MSTORE PUSH1 0x20 ADD DUP3 DUP1 SLOAD PUSH2 0x521 SWAP1 PUSH2 0x1E56 JUMP JUMPDEST DUP1 ISZERO PUSH2 0x56E JUMPI DUP1 PUSH1 0x1F LT PUSH2 0x543 JUMPI PUSH2 0x100 DUP1 DUP4 SLOAD DIV MUL DUP4 MSTORE SWAP2 PUSH1 0x20 ADD SWAP2 PUSH2 0x56E JUMP JUMPDEST DUP3 ADD SWAP2 SWAP1 PUSH1 0x0 MSTORE PUSH1 0x20 PUSH1 0x0 KECCAK256 SWAP1 JUMPDEST DUP2 SLOAD DUP2 MSTORE SWAP1 PUSH1 0x1 ADD SWAP1 PUSH1 0x20 ADD DUP1 DUP4 GT PUSH2 0x551 JUMPI DUP3 SWAP1 SUB PUSH1 0x1F AND DUP3 ADD SWAP2 JUMPDEST POP POP POP POP POP SWAP1 POP SWAP1 JUMP JUMPDEST PUSH1 0x0 PUSH2 0x58C PUSH2 0x585 PUSH2 0xF9B JUMP JUMPDEST DUP5 DUP5 PUSH2 0xF9F JUMP JUMPDEST POP PUSH1 0x1 SWAP3 SWAP2 POP POP JUMP JUMPDEST PUSH2 0x59D PUSH2 0xF9B JUMP JUMPDEST PUSH1 0x1 PUSH1 0x1 PUSH1 0xA0 SHL SUB AND PUSH2 0x5AE PUSH2 0xB3F JUMP JUMPDEST PUSH1 0x1 PUSH1 0x1 PUSH1 0xA0 SHL SUB AND EQ PUSH2 0x5DD JUMPI PUSH1 0x40 MLOAD PUSH3 0x461BCD PUSH1 0xE5 SHL DUP2 MSTORE PUSH1 0x4 ADD PUSH2 0x5D4 SWAP1 PUSH2 0x1A7A JUMP JUMPDEST PUSH1 0x40 MLOAD DUP1 SWAP2 SUB SWAP1 REVERT JUMPDEST PUSH2 0x5F0 DUP3 PUSH1 0xD SLOAD PUSH1 0xE SLOAD PUSH1 0x8 SLOAD DUP6 PUSH2 0x1053 JUMP JUMPDEST POP PUSH1 0x15 DUP1 SLOAD PUSH1 0x1 DUP2 ADD DUP3 SSTORE PUSH1 0x0 SWAP2 SWAP1 SWAP2 MSTORE PUSH32 0x55F448FDEA98C4D29EB340757EF0A66CD03DBB9538908A6A81D96026B71EC475 ADD DUP1 SLOAD PUSH1 0x1 PUSH1 0x1 PUSH1 0xA0 SHL SUB NOT AND PUSH1 0x1 PUSH1 0x1 PUSH1 0xA0 SHL SUB SWAP3 SWAP1 SWAP3 AND SWAP2 SWAP1 SWAP2 OR SWAP1 SSTORE JUMP JUMPDEST PUSH1 0x3 SLOAD SWAP1 JUMP JUMPDEST PUSH1 0x0 PUSH2 0x656 DUP5 DUP5 DUP5 PUSH2 0x1214 JUMP JUMPDEST PUSH1 0x1 PUSH1 0x1 PUSH1 0xA0 SHL SUB DUP5 AND PUSH1 0x0 SWAP1 DUP2 MSTORE PUSH1 0x2 PUSH1 0x20 MSTORE PUSH1 0x40 DUP2 KECCAK256 DUP2 PUSH2 0x677 PUSH2 0xF9B JUMP JUMPDEST PUSH1 0x1 PUSH1 0x1 PUSH1 0xA0 SHL SUB AND PUSH1 0x1 PUSH1 0x1 PUSH1 0xA0 SHL SUB AND DUP2 MSTORE PUSH1 0x20 ADD SWAP1 DUP2 MSTORE PUSH1 0x20 ADD PUSH1 0x0 KECCAK256 SLOAD SWAP1 POP DUP3 DUP2 LT ISZERO PUSH2 0x6BA JUMPI PUSH1 0x40 MLOAD PUSH3 0x461BCD PUSH1 0xE5 SHL DUP2 MSTORE PUSH1 0x4 ADD PUSH2 0x5D4 SWAP1 PUSH2 0x1A32 JUMP JUMPDEST PUSH2 0x6CE DUP6 PUSH2 0x6C6 PUSH2 0xF9B JUMP JUMPDEST DUP6 DUP5 SUB PUSH2 0xF9F JUMP JUMPDEST POP PUSH1 0x1 SWAP5 SWAP4 POP POP POP POP JUMP JUMPDEST PUSH1 0x15 SLOAD SWAP1 JUMP JUMPDEST PUSH2 0x6E7 PUSH2 0xF9B JUMP JUMPDEST PUSH1 0x1 PUSH1 0x1 PUSH1 0xA0 SHL SUB AND PUSH2 0x6F8 PUSH2 0xB3F JUMP JUMPDEST PUSH1 0x1 PUSH1 0x1 PUSH1 0xA0 SHL SUB AND EQ PUSH2 0x71E JUMPI PUSH1 0x40 MLOAD PUSH3 0x461BCD PUSH1 0xE5 SHL DUP2 MSTORE PUSH1 0x4 ADD PUSH2 0x5D4 SWAP1 PUSH2 0x1A7A JUMP JUMPDEST PUSH2 0x731 DUP3 PUSH1 0x9 SLOAD PUSH1 0xA SLOAD PUSH1 0x8 SLOAD DUP6 PUSH2 0x1053 JUMP JUMPDEST POP PUSH1 0x13 DUP1 SLOAD PUSH1 0x1 DUP2 ADD DUP3 SSTORE PUSH1 0x0 SWAP2 SWAP1 SWAP2 MSTORE PUSH32 0x66DE8FFDA797E3DE9C05E8FC57B3BF0EC28A930D40B0D285D93C06501CF6A090 ADD DUP1 SLOAD PUSH1 0x1 PUSH1 0x1 PUSH1 0xA0 SHL SUB NOT AND PUSH1 0x1 PUSH1 0x1 PUSH1 0xA0 SHL SUB SWAP3 SWAP1 SWAP3 AND SWAP2 SWAP1 SWAP2 OR SWAP1 SSTORE JUMP JUMPDEST PUSH1 0x12 SWAP1 JUMP JUMPDEST PUSH1 0x1E SLOAD PUSH1 0x1F SLOAD PUSH1 0x1 PUSH1 0x1 PUSH1 0xA0 SHL SUB SWAP1 SWAP2 AND SWAP1 DUP3 JUMP JUMPDEST PUSH1 0x0 PUSH2 0x58C PUSH2 0x7AB PUSH2 0xF9B JUMP JUMPDEST DUP5 DUP5 PUSH1 0x2 PUSH1 0x0 PUSH2 0x7B9 PUSH2 0xF9B JUMP JUMPDEST PUSH1 0x1 PUSH1 0x1 PUSH1 0xA0 SHL SUB SWAP1 DUP2 AND DUP3 MSTORE PUSH1 0x20 DUP1 DUP4 ADD SWAP4 SWAP1 SWAP4 MSTORE PUSH1 0x40 SWAP2 DUP3 ADD PUSH1 0x0 SWAP1 DUP2 KECCAK256 SWAP2 DUP12 AND DUP2 MSTORE SWAP3 MSTORE SWAP1 KECCAK256 SLOAD PUSH2 0x7ED SWAP2 SWAP1 PUSH2 0x1DE8 JUMP JUMPDEST PUSH2 0xF9F JUMP JUMPDEST PUSH2 0x803 PUSH2 0x7FD PUSH2 0xF9B JUMP JUMPDEST DUP3 PUSH2 0x133E JUMP JUMPDEST POP JUMP JUMPDEST PUSH1 0x15 SLOAD PUSH1 0x0 SWAP1 DUP3 LT PUSH2 0x82A JUMPI PUSH1 0x40 MLOAD PUSH3 0x461BCD PUSH1 0xE5 SHL DUP2 MSTORE PUSH1 0x4 ADD PUSH2 0x5D4 SWAP1 PUSH2 0x17A0 JUMP JUMPDEST PUSH1 0x15 DUP3 DUP2 SLOAD DUP2 LT PUSH2 0x84B JUMPI PUSH4 0x4E487B71 PUSH1 0xE0 SHL PUSH1 0x0 MSTORE PUSH1 0x32 PUSH1 0x4 MSTORE PUSH1 0x24 PUSH1 0x0 REVERT JUMPDEST PUSH1 0x0 SWAP2 DUP3 MSTORE PUSH1 0x20 SWAP1 SWAP2 KECCAK256 ADD SLOAD PUSH1 0x1 PUSH1 0x1 PUSH1 0xA0 SHL SUB AND SWAP1 POP JUMPDEST SWAP2 SWAP1 POP JUMP JUMPDEST PUSH1 0x7 SLOAD SWAP1 JUMP JUMPDEST PUSH1 0x13 SLOAD SWAP1 JUMP JUMPDEST PUSH1 0x16 SLOAD PUSH1 0x0 SWAP1 DUP3 LT PUSH2 0x898 JUMPI PUSH1 0x40 MLOAD PUSH3 0x461BCD PUSH1 0xE5 SHL DUP2 MSTORE PUSH1 0x4 ADD PUSH2 0x5D4 SWAP1 PUSH2 0x17A0 JUMP JUMPDEST PUSH1 0x16 DUP3 DUP2 SLOAD DUP2 LT PUSH2 0x84B JUMPI PUSH4 0x4E487B71 PUSH1 0xE0 SHL PUSH1 0x0 MSTORE PUSH1 0x32 PUSH1 0x4 MSTORE PUSH1 0x24 PUSH1 0x0 REVERT JUMPDEST PUSH1 0x14 SLOAD SWAP1 JUMP JUMPDEST PUSH1 0x1 PUSH1 0x1 PUSH1 0xA0 SHL SUB AND PUSH1 0x0 SWAP1 DUP2 MSTORE PUSH1 0x1 PUSH1 0x20 MSTORE PUSH1 0x40 SWAP1 KECCAK256 SLOAD SWAP1 JUMP JUMPDEST PUSH2 0x8E2 PUSH2 0xF9B JUMP JUMPDEST PUSH1 0x1 PUSH1 0x1 PUSH1 0xA0 SHL SUB AND PUSH2 0x8F3 PUSH2 0xB3F JUMP JUMPDEST PUSH1 0x1 PUSH1 0x1 PUSH1 0xA0 SHL SUB AND EQ PUSH2 0x919 JUMPI PUSH1 0x40 MLOAD PUSH3 0x461BCD PUSH1 0xE5 SHL DUP2 MSTORE PUSH1 0x4 ADD PUSH2 0x5D4 SWAP1 PUSH2 0x1A7A JUMP JUMPDEST PUSH2 0x923 PUSH1 0x0 PUSH2 0x142F JUMP JUMPDEST JUMP JUMPDEST PUSH1 0x0 PUSH2 0x933 DUP4 PUSH2 0x493 PUSH2 0xF9B JUMP JUMPDEST SWAP1 POP DUP2 DUP2 LT ISZERO PUSH2 0x955 JUMPI PUSH1 0x40 MLOAD PUSH3 0x461BCD PUSH1 0xE5 SHL DUP2 MSTORE PUSH1 0x4 ADD PUSH2 0x5D4 SWAP1 PUSH2 0x1AE4 JUMP JUMPDEST PUSH2 0x969 DUP4 PUSH2 0x961 PUSH2 0xF9B JUMP JUMPDEST DUP5 DUP5 SUB PUSH2 0xF9F JUMP JUMPDEST PUSH2 0x973 DUP4 DUP4 PUSH2 0x133E JUMP JUMPDEST POP POP POP JUMP JUMPDEST PUSH1 0x1C SLOAD PUSH1 0x1D SLOAD PUSH1 0x1 PUSH1 0x1 PUSH1 0xA0 SHL SUB SWAP1 SWAP2 AND SWAP1 DUP3 JUMP JUMPDEST PUSH2 0x995 PUSH2 0xF9B JUMP JUMPDEST PUSH1 0x1 PUSH1 0x1 PUSH1 0xA0 SHL SUB AND PUSH2 0x9A6 PUSH2 0xB3F JUMP JUMPDEST PUSH1 0x1 PUSH1 0x1 PUSH1 0xA0 SHL SUB AND EQ PUSH2 0x9CC JUMPI PUSH1 0x40 MLOAD PUSH3 0x461BCD PUSH1 0xE5 SHL DUP2 MSTORE PUSH1 0x4 ADD PUSH2 0x5D4 SWAP1 PUSH2 0x1A7A JUMP JUMPDEST PUSH2 0x9DF DUP3 PUSH1 0xB SLOAD PUSH1 0xC SLOAD PUSH1 0x8 SLOAD DUP6 PUSH2 0x1053 JUMP JUMPDEST POP PUSH1 0x14 DUP1 SLOAD PUSH1 0x1 DUP2 ADD DUP3 SSTORE PUSH1 0x0 SWAP2 SWAP1 SWAP2 MSTORE PUSH32 0xCE6D7B5282BD9A3661AE061FEED1DBDA4E52AB073B1F9285BE6E155D9C38D4EC ADD DUP1 SLOAD PUSH1 0x1 PUSH1 0x1 PUSH1 0xA0 SHL SUB NOT AND PUSH1 0x1 PUSH1 0x1 PUSH1 0xA0 SHL SUB SWAP3 SWAP1 SWAP3 AND SWAP2 SWAP1 SWAP2 OR SWAP1 SSTORE JUMP JUMPDEST CALLER PUSH1 0x0 DUP2 DUP2 MSTORE PUSH1 0x6 PUSH1 0x20 MSTORE PUSH1 0x40 SWAP1 KECCAK256 DUP1 SLOAD PUSH1 0xFF AND PUSH2 0xA62 JUMPI PUSH1 0x40 MLOAD PUSH3 0x461BCD PUSH1 0xE5 SHL DUP2 MSTORE PUSH1 0x4 ADD PUSH2 0x5D4 SWAP1 PUSH2 0x1CA4 JUMP JUMPDEST PUSH1 0x0 PUSH2 0xA6D DUP3 PUSH2 0x147F JUMP JUMPDEST SWAP1 POP PUSH1 0x0 DUP2 GT PUSH2 0xA8F JUMPI PUSH1 0x40 MLOAD PUSH3 0x461BCD PUSH1 0xE5 SHL DUP2 MSTORE PUSH1 0x4 ADD PUSH2 0x5D4 SWAP1 PUSH2 0x19DD JUMP JUMPDEST PUSH1 0x5 DUP3 ADD SLOAD PUSH2 0xA9E SWAP1 DUP3 PUSH2 0x1549 JUMP JUMPDEST PUSH1 0x5 DUP4 ADD SSTORE PUSH1 0x7 SLOAD PUSH2 0xAB0 SWAP1 DUP3 PUSH2 0x1555 JUMP JUMPDEST PUSH1 0x7 SSTORE PUSH2 0xABE ADDRESS DUP5 DUP4 PUSH2 0x1214 JUMP JUMPDEST PUSH32 0xFB81F9B30D73D830C3544B34D827C08142579EE75710B490BAB0B3995468C565 DUP2 PUSH1 0x40 MLOAD PUSH2 0xAED SWAP2 SWAP1 PUSH2 0x1DD1 JUMP JUMPDEST PUSH1 0x40 MLOAD DUP1 SWAP2 SUB SWAP1 LOG1 POP POP POP JUMP JUMPDEST PUSH1 0x14 SLOAD PUSH1 0x0 SWAP1 DUP3 LT PUSH2 0xB1E JUMPI PUSH1 0x40 MLOAD PUSH3 0x461BCD PUSH1 0xE5 SHL DUP2 MSTORE PUSH1 0x4 ADD PUSH2 0x5D4 SWAP1 PUSH2 0x17A0 JUMP JUMPDEST PUSH1 0x14 DUP3 DUP2 SLOAD DUP2 LT PUSH2 0x84B JUMPI PUSH4 0x4E487B71 PUSH1 0xE0 SHL PUSH1 0x0 MSTORE PUSH1 0x32 PUSH1 0x4 MSTORE PUSH1 0x24 PUSH1 0x0 REVERT JUMPDEST PUSH1 0x0 SLOAD PUSH1 0x1 PUSH1 0x1 PUSH1 0xA0 SHL SUB AND SWAP1 JUMP JUMPDEST PUSH1 0x60 PUSH1 0x5 DUP1 SLOAD PUSH2 0x4F5 SWAP1 PUSH2 0x1E56 JUMP JUMPDEST PUSH1 0x20 SLOAD PUSH1 0x21 SLOAD PUSH1 0x1 PUSH1 0x1 PUSH1 0xA0 SHL SUB SWAP1 SWAP2 AND SWAP1 DUP3 JUMP JUMPDEST PUSH1 0x0 DUP1 PUSH1 0x2 PUSH1 0x0 PUSH2 0xB81 PUSH2 0xF9B JUMP JUMPDEST PUSH1 0x1 PUSH1 0x1 PUSH1 0xA0 SHL SUB SWAP1 DUP2 AND DUP3 MSTORE PUSH1 0x20 DUP1 DUP4 ADD SWAP4 SWAP1 SWAP4 MSTORE PUSH1 0x40 SWAP2 DUP3 ADD PUSH1 0x0 SWAP1 DUP2 KECCAK256 SWAP2 DUP9 AND DUP2 MSTORE SWAP3 MSTORE SWAP1 KECCAK256 SLOAD SWAP1 POP DUP3 DUP2 LT ISZERO PUSH2 0xBCD JUMPI PUSH1 0x40 MLOAD PUSH3 0x461BCD PUSH1 0xE5 SHL DUP2 MSTORE PUSH1 0x4 ADD PUSH2 0x5D4 SWAP1 PUSH2 0x1CF8 JUMP JUMPDEST PUSH2 0xBE1 PUSH2 0xBD8 PUSH2 0xF9B JUMP JUMPDEST DUP6 DUP6 DUP5 SUB PUSH2 0xF9F JUMP JUMPDEST POP PUSH1 0x1 SWAP4 SWAP3 POP POP POP JUMP JUMPDEST PUSH1 0x17 SLOAD SWAP1 JUMP JUMPDEST PUSH1 0x0 PUSH2 0x58C PUSH2 0xBFE PUSH2 0xF9B JUMP JUMPDEST DUP5 DUP5 PUSH2 0x1214 JUMP JUMPDEST PUSH1 0x13 SLOAD PUSH1 0x0 SWAP1 DUP3 LT PUSH2 0xC29 JUMPI PUSH1 0x40 MLOAD PUSH3 0x461BCD PUSH1 0xE5 SHL DUP2 MSTORE PUSH1 0x4 ADD PUSH2 0x5D4 SWAP1 PUSH2 0x17A0 JUMP JUMPDEST PUSH1 0x13 DUP3 DUP2 SLOAD DUP2 LT PUSH2 0x84B JUMPI PUSH4 0x4E487B71 PUSH1 0xE0 SHL PUSH1 0x0 MSTORE PUSH1 0x32 PUSH1 0x4 MSTORE PUSH1 0x24 PUSH1 0x0 REVERT JUMPDEST PUSH1 0x17 SLOAD PUSH1 0x0 SWAP1 DUP3 LT PUSH2 0xC6E JUMPI PUSH1 0x40 MLOAD PUSH3 0x461BCD PUSH1 0xE5 SHL DUP2 MSTORE PUSH1 0x4 ADD PUSH2 0x5D4 SWAP1 PUSH2 0x17A0 JUMP JUMPDEST PUSH1 0x17 DUP3 DUP2 SLOAD DUP2 LT PUSH2 0x84B JUMPI PUSH4 0x4E487B71 PUSH1 0xE0 SHL PUSH1 0x0 MSTORE PUSH1 0x32 PUSH1 0x4 MSTORE PUSH1 0x24 PUSH1 0x0 REVERT JUMPDEST PUSH2 0xC97 PUSH2 0xF9B JUMP JUMPDEST PUSH1 0x1 PUSH1 0x1 PUSH1 0xA0 SHL SUB AND PUSH2 0xCA8 PUSH2 0xB3F JUMP JUMPDEST PUSH1 0x1 PUSH1 0x1 PUSH1 0xA0 SHL SUB AND EQ PUSH2 0xCCE JUMPI PUSH1 0x40 MLOAD PUSH3 0x461BCD PUSH1 0xE5 SHL DUP2 MSTORE PUSH1 0x4 ADD PUSH2 0x5D4 SWAP1 PUSH2 0x1A7A JUMP JUMPDEST PUSH2 0xCE1 DUP3 PUSH1 0xF SLOAD PUSH1 0x10 SLOAD PUSH1 0x8 SLOAD DUP6 PUSH2 0x1053 JUMP JUMPDEST POP PUSH1 0x16 DUP1 SLOAD PUSH1 0x1 DUP2 ADD DUP3 SSTORE PUSH1 0x0 SWAP2 SWAP1 SWAP2 MSTORE PUSH32 0xD833147D7DC355BA459FC788F669E58CFAF9DC25DDCD0702E87D69C7B5124289 ADD DUP1 SLOAD PUSH1 0x1 PUSH1 0x1 PUSH1 0xA0 SHL SUB NOT AND PUSH1 0x1 PUSH1 0x1 PUSH1 0xA0 SHL SUB SWAP3 SWAP1 SWAP3 AND SWAP2 SWAP1 SWAP2 OR SWAP1 SSTORE JUMP JUMPDEST PUSH1 0x16 SLOAD SWAP1 JUMP JUMPDEST PUSH1 0x1A SLOAD PUSH1 0x1B SLOAD PUSH1 0x1 PUSH1 0x1 PUSH1 0xA0 SHL SUB SWAP1 SWAP2 AND SWAP1 DUP3 JUMP JUMPDEST PUSH1 0x1 PUSH1 0x1 PUSH1 0xA0 SHL SUB DUP2 AND PUSH1 0x0 SWAP1 DUP2 MSTORE PUSH1 0x6 PUSH1 0x20 MSTORE PUSH1 0x40 DUP2 KECCAK256 DUP1 SLOAD PUSH1 0xFF AND PUSH2 0xD88 JUMPI PUSH1 0x40 MLOAD PUSH3 0x461BCD PUSH1 0xE5 SHL DUP2 MSTORE PUSH1 0x4 ADD PUSH2 0x5D4 SWAP1 PUSH2 0x192E JUMP JUMPDEST TIMESTAMP DUP2 PUSH1 0x1 ADD SLOAD LT PUSH2 0xDAB JUMPI PUSH1 0x40 MLOAD PUSH3 0x461BCD PUSH1 0xE5 SHL DUP2 MSTORE PUSH1 0x4 ADD PUSH2 0x5D4 SWAP1 PUSH2 0x1D3D JUMP JUMPDEST PUSH2 0xDB4 DUP2 PUSH2 0x147F JUMP JUMPDEST SWAP4 SWAP3 POP POP POP JUMP JUMPDEST PUSH1 0x1 PUSH1 0x1 PUSH1 0xA0 SHL SUB SWAP2 DUP3 AND PUSH1 0x0 SWAP1 DUP2 MSTORE PUSH1 0x2 PUSH1 0x20 SWAP1 DUP2 MSTORE PUSH1 0x40 DUP1 DUP4 KECCAK256 SWAP4 SWAP1 SWAP5 AND DUP3 MSTORE SWAP2 SWAP1 SWAP2 MSTORE KECCAK256 SLOAD SWAP1 JUMP JUMPDEST PUSH2 0xDEE PUSH2 0xF9B JUMP JUMPDEST PUSH1 0x1 PUSH1 0x1 PUSH1 0xA0 SHL SUB AND PUSH2 0xDFF PUSH2 0xB3F JUMP JUMPDEST PUSH1 0x1 PUSH1 0x1 PUSH1 0xA0 SHL SUB AND EQ PUSH2 0xE25 JUMPI PUSH1 0x40 MLOAD PUSH3 0x461BCD PUSH1 0xE5 SHL DUP2 MSTORE PUSH1 0x4 ADD PUSH2 0x5D4 SWAP1 PUSH2 0x1A7A JUMP JUMPDEST PUSH2 0xE38 DUP3 PUSH1 0x11 SLOAD PUSH1 0x12 SLOAD PUSH1 0x8 SLOAD DUP6 PUSH2 0x1053 JUMP JUMPDEST POP PUSH1 0x17 DUP1 SLOAD PUSH1 0x1 DUP2 ADD DUP3 SSTORE PUSH1 0x0 SWAP2 SWAP1 SWAP2 MSTORE PUSH32 0xC624B66CC0138B8FABC209247F72D758E1CF3343756D543BADBF24212BED8C15 ADD DUP1 SLOAD PUSH1 0x1 PUSH1 0x1 PUSH1 0xA0 SHL SUB NOT AND PUSH1 0x1 PUSH1 0x1 PUSH1 0xA0 SHL SUB SWAP3 SWAP1 SWAP3 AND SWAP2 SWAP1 SWAP2 OR SWAP1 SSTORE JUMP JUMPDEST PUSH1 0x18 SLOAD PUSH1 0x19 SLOAD PUSH1 0x1 PUSH1 0x1 PUSH1 0xA0 SHL SUB SWAP1 SWAP2 AND SWAP1 DUP3 JUMP JUMPDEST PUSH2 0xEA8 PUSH2 0xF9B JUMP JUMPDEST PUSH1 0x1 PUSH1 0x1 PUSH1 0xA0 SHL SUB AND PUSH2 0xEB9 PUSH2 0xB3F JUMP JUMPDEST PUSH1 0x1 PUSH1 0x1 PUSH1 0xA0 SHL SUB AND EQ PUSH2 0xEDF JUMPI PUSH1 0x40 MLOAD PUSH3 0x461BCD PUSH1 0xE5 SHL DUP2 MSTORE PUSH1 0x4 ADD PUSH2 0x5D4 SWAP1 PUSH2 0x1A7A JUMP JUMPDEST PUSH1 0x1 PUSH1 0x1 PUSH1 0xA0 SHL SUB DUP2 AND PUSH2 0xF05 JUMPI PUSH1 0x40 MLOAD PUSH3 0x461BCD PUSH1 0xE5 SHL DUP2 MSTORE PUSH1 0x4 ADD PUSH2 0x5D4 SWAP1 PUSH2 0x17CF JUMP JUMPDEST PUSH2 0x803 DUP2 PUSH2 0x142F JUMP JUMPDEST PUSH2 0xF16 PUSH2 0x1579 JUMP JUMPDEST PUSH1 0x1 PUSH1 0x1 PUSH1 0xA0 SHL SUB DUP3 AND PUSH1 0x0 SWAP1 DUP2 MSTORE PUSH1 0x6 PUSH1 0x20 SWAP1 DUP2 MSTORE PUSH1 0x40 SWAP2 DUP3 SWAP1 KECCAK256 DUP3 MLOAD PUSH1 0xC0 DUP2 ADD DUP5 MSTORE DUP2 SLOAD PUSH1 0xFF AND ISZERO ISZERO DUP1 DUP3 MSTORE PUSH1 0x1 DUP4 ADD SLOAD SWAP4 DUP3 ADD SWAP4 SWAP1 SWAP4 MSTORE PUSH1 0x2 DUP3 ADD SLOAD SWAP4 DUP2 ADD SWAP4 SWAP1 SWAP4 MSTORE PUSH1 0x3 DUP2 ADD SLOAD PUSH1 0x60 DUP5 ADD MSTORE PUSH1 0x4 DUP2 ADD SLOAD PUSH1 0x80 DUP5 ADD MSTORE PUSH1 0x5 ADD SLOAD PUSH1 0xA0 DUP4 ADD MSTORE PUSH2 0xF95 JUMPI PUSH1 0x40 MLOAD PUSH3 0x461BCD PUSH1 0xE5 SHL DUP2 MSTORE PUSH1 0x4 ADD PUSH2 0x5D4 SWAP1 PUSH2 0x192E JUMP JUMPDEST SWAP3 SWAP2 POP POP JUMP JUMPDEST CALLER SWAP1 JUMP JUMPDEST PUSH1 0x1 PUSH1 0x1 PUSH1 0xA0 SHL SUB DUP4 AND PUSH2 0xFC5 JUMPI PUSH1 0x40 MLOAD PUSH3 0x461BCD PUSH1 0xE5 SHL DUP2 MSTORE PUSH1 0x4 ADD PUSH2 0x5D4 SWAP1 PUSH2 0x1BF0 JUMP JUMPDEST PUSH1 0x1 PUSH1 0x1 PUSH1 0xA0 SHL SUB DUP3 AND PUSH2 0xFEB JUMPI PUSH1 0x40 MLOAD PUSH3 0x461BCD PUSH1 0xE5 SHL DUP2 MSTORE PUSH1 0x4 ADD PUSH2 0x5D4 SWAP1 PUSH2 0x1815 JUMP JUMPDEST PUSH1 0x1 PUSH1 0x1 PUSH1 0xA0 SHL SUB DUP1 DUP5 AND PUSH1 0x0 DUP2 DUP2 MSTORE PUSH1 0x2 PUSH1 0x20 SWAP1 DUP2 MSTORE PUSH1 0x40 DUP1 DUP4 KECCAK256 SWAP5 DUP8 AND DUP1 DUP5 MSTORE SWAP5 SWAP1 SWAP2 MSTORE SWAP1 DUP2 SWAP1 KECCAK256 DUP5 SWAP1 SSTORE MLOAD PUSH32 0x8C5BE1E5EBEC7D5BD14F71427D1E84F3DD0314C0F7B2291E5B200AC8C7C3B925 SWAP1 PUSH2 0x1046 SWAP1 DUP6 SWAP1 PUSH2 0x1DD1 JUMP JUMPDEST PUSH1 0x40 MLOAD DUP1 SWAP2 SUB SWAP1 LOG3 POP POP POP JUMP JUMPDEST DUP1 PUSH2 0x105D ADDRESS PUSH2 0x8BF JUMP JUMPDEST LT ISZERO PUSH2 0x107B JUMPI PUSH1 0x40 MLOAD PUSH3 0x461BCD PUSH1 0xE5 SHL DUP2 MSTORE PUSH1 0x4 ADD PUSH2 0x5D4 SWAP1 PUSH2 0x1C34 JUMP JUMPDEST PUSH1 0x0 DUP4 GT PUSH2 0x109B JUMPI PUSH1 0x40 MLOAD PUSH3 0x461BCD PUSH1 0xE5 SHL DUP2 MSTORE PUSH1 0x4 ADD PUSH2 0x5D4 SWAP1 PUSH2 0x1B28 JUMP JUMPDEST PUSH1 0x0 DUP2 GT PUSH2 0x10BB JUMPI PUSH1 0x40 MLOAD PUSH3 0x461BCD PUSH1 0xE5 SHL DUP2 MSTORE PUSH1 0x4 ADD PUSH2 0x5D4 SWAP1 PUSH2 0x1AAF JUMP JUMPDEST PUSH1 0x1 DUP3 LT ISZERO PUSH2 0x10DC JUMPI PUSH1 0x40 MLOAD PUSH3 0x461BCD PUSH1 0xE5 SHL DUP2 MSTORE PUSH1 0x4 ADD PUSH2 0x5D4 SWAP1 PUSH2 0x1857 JUMP JUMPDEST PUSH2 0x10E4 PUSH2 0x643 JUMP JUMPDEST PUSH1 0x7 SLOAD PUSH2 0x10F1 SWAP1 DUP4 PUSH2 0x1549 JUMP JUMPDEST GT ISZERO PUSH2 0x110F JUMPI PUSH1 0x40 MLOAD PUSH3 0x461BCD PUSH1 0xE5 SHL DUP2 MSTORE PUSH1 0x4 ADD PUSH2 0x5D4 SWAP1 PUSH2 0x18EA JUMP JUMPDEST PUSH1 0x1 PUSH1 0x1 PUSH1 0xA0 SHL SUB DUP6 AND PUSH1 0x0 SWAP1 DUP2 MSTORE PUSH1 0x6 PUSH1 0x20 MSTORE PUSH1 0x40 SWAP1 KECCAK256 DUP1 SLOAD PUSH1 0xFF AND ISZERO PUSH2 0x1149 JUMPI PUSH1 0x40 MLOAD PUSH3 0x461BCD PUSH1 0xE5 SHL DUP2 MSTORE PUSH1 0x4 ADD PUSH2 0x5D4 SWAP1 PUSH2 0x1980 JUMP JUMPDEST PUSH1 0x40 MLOAD DUP1 PUSH1 0xC0 ADD PUSH1 0x40 MSTORE DUP1 PUSH1 0x1 ISZERO ISZERO DUP2 MSTORE PUSH1 0x20 ADD DUP7 DUP2 MSTORE PUSH1 0x20 ADD DUP6 DUP2 MSTORE PUSH1 0x20 ADD DUP5 DUP2 MSTORE PUSH1 0x20 ADD DUP4 DUP2 MSTORE PUSH1 0x20 ADD PUSH1 0x0 DUP2 MSTORE POP PUSH1 0x6 PUSH1 0x0 DUP9 PUSH1 0x1 PUSH1 0x1 PUSH1 0xA0 SHL SUB AND PUSH1 0x1 PUSH1 0x1 PUSH1 0xA0 SHL SUB AND DUP2 MSTORE PUSH1 0x20 ADD SWAP1 DUP2 MSTORE PUSH1 0x20 ADD PUSH1 0x0 KECCAK256 PUSH1 0x0 DUP3 ADD MLOAD DUP2 PUSH1 0x0 ADD PUSH1 0x0 PUSH2 0x100 EXP DUP2 SLOAD DUP2 PUSH1 0xFF MUL NOT AND SWAP1 DUP4 ISZERO ISZERO MUL OR SWAP1 SSTORE POP PUSH1 0x20 DUP3 ADD MLOAD DUP2 PUSH1 0x1 ADD SSTORE PUSH1 0x40 DUP3 ADD MLOAD DUP2 PUSH1 0x2 ADD SSTORE PUSH1 0x60 DUP3 ADD MLOAD DUP2 PUSH1 0x3 ADD SSTORE PUSH1 0x80 DUP3 ADD MLOAD DUP2 PUSH1 0x4 ADD SSTORE PUSH1 0xA0 DUP3 ADD MLOAD DUP2 PUSH1 0x5 ADD SSTORE SWAP1 POP POP PUSH2 0x1209 DUP3 PUSH1 0x7 SLOAD PUSH2 0x1549 SWAP1 SWAP2 SWAP1 PUSH4 0xFFFFFFFF AND JUMP JUMPDEST PUSH1 0x7 SSTORE POP POP POP POP POP POP JUMP JUMPDEST PUSH1 0x1 PUSH1 0x1 PUSH1 0xA0 SHL SUB DUP4 AND PUSH2 0x123A JUMPI PUSH1 0x40 MLOAD PUSH3 0x461BCD PUSH1 0xE5 SHL DUP2 MSTORE PUSH1 0x4 ADD PUSH2 0x5D4 SWAP1 PUSH2 0x1BAB JUMP JUMPDEST PUSH1 0x1 PUSH1 0x1 PUSH1 0xA0 SHL SUB DUP3 AND PUSH2 0x1260 JUMPI PUSH1 0x40 MLOAD PUSH3 0x461BCD PUSH1 0xE5 SHL DUP2 MSTORE PUSH1 0x4 ADD PUSH2 0x5D4 SWAP1 PUSH2 0x171B JUMP JUMPDEST PUSH2 0x126B DUP4 DUP4 DUP4 PUSH2 0x973 JUMP JUMPDEST PUSH1 0x1 PUSH1 0x1 PUSH1 0xA0 SHL SUB DUP4 AND PUSH1 0x0 SWAP1 DUP2 MSTORE PUSH1 0x1 PUSH1 0x20 MSTORE PUSH1 0x40 SWAP1 KECCAK256 SLOAD DUP2 DUP2 LT ISZERO PUSH2 0x12A4 JUMPI PUSH1 0x40 MLOAD PUSH3 0x461BCD PUSH1 0xE5 SHL DUP2 MSTORE PUSH1 0x4 ADD PUSH2 0x5D4 SWAP1 PUSH2 0x18A4 JUMP JUMPDEST PUSH1 0x1 PUSH1 0x1 PUSH1 0xA0 SHL SUB DUP1 DUP6 AND PUSH1 0x0 SWAP1 DUP2 MSTORE PUSH1 0x1 PUSH1 0x20 MSTORE PUSH1 0x40 DUP1 DUP3 KECCAK256 DUP6 DUP6 SUB SWAP1 SSTORE SWAP2 DUP6 AND DUP2 MSTORE SWAP1 DUP2 KECCAK256 DUP1 SLOAD DUP5 SWAP3 SWAP1 PUSH2 0x12DB SWAP1 DUP5 SWAP1 PUSH2 0x1DE8 JUMP JUMPDEST SWAP3 POP POP DUP2 SWAP1 SSTORE POP DUP3 PUSH1 0x1 PUSH1 0x1 PUSH1 0xA0 SHL SUB AND DUP5 PUSH1 0x1 PUSH1 0x1 PUSH1 0xA0 SHL SUB AND PUSH32 0xDDF252AD1BE2C89B69C2B068FC378DAA952BA7F163C4A11628F55A4DF523B3EF DUP5 PUSH1 0x40 MLOAD PUSH2 0x1325 SWAP2 SWAP1 PUSH2 0x1DD1 JUMP JUMPDEST PUSH1 0x40 MLOAD DUP1 SWAP2 SUB SWAP1 LOG3 PUSH2 0x1338 DUP5 DUP5 DUP5 PUSH2 0x973 JUMP JUMPDEST POP POP POP POP JUMP JUMPDEST PUSH1 0x1 PUSH1 0x1 PUSH1 0xA0 SHL SUB DUP3 AND PUSH2 0x1364 JUMPI PUSH1 0x40 MLOAD PUSH3 0x461BCD PUSH1 0xE5 SHL DUP2 MSTORE PUSH1 0x4 ADD PUSH2 0x5D4 SWAP1 PUSH2 0x1B6A JUMP JUMPDEST PUSH2 0x1370 DUP3 PUSH1 0x0 DUP4 PUSH2 0x973 JUMP JUMPDEST PUSH1 0x1 PUSH1 0x1 PUSH1 0xA0 SHL SUB DUP3 AND PUSH1 0x0 SWAP1 DUP2 MSTORE PUSH1 0x1 PUSH1 0x20 MSTORE PUSH1 0x40 SWAP1 KECCAK256 SLOAD DUP2 DUP2 LT ISZERO PUSH2 0x13A9 JUMPI PUSH1 0x40 MLOAD PUSH3 0x461BCD PUSH1 0xE5 SHL DUP2 MSTORE PUSH1 0x4 ADD PUSH2 0x5D4 SWAP1 PUSH2 0x175E JUMP JUMPDEST PUSH1 0x1 PUSH1 0x1 PUSH1 0xA0 SHL SUB DUP4 AND PUSH1 0x0 SWAP1 DUP2 MSTORE PUSH1 0x1 PUSH1 0x20 MSTORE PUSH1 0x40 DUP2 KECCAK256 DUP4 DUP4 SUB SWAP1 SSTORE PUSH1 0x3 DUP1 SLOAD DUP5 SWAP3 SWAP1 PUSH2 0x13D8 SWAP1 DUP5 SWAP1 PUSH2 0x1E3F JUMP JUMPDEST SWAP1 SWAP2 SSTORE POP POP PUSH1 0x40 MLOAD PUSH1 0x0 SWAP1 PUSH1 0x1 PUSH1 0x1 PUSH1 0xA0 SHL SUB DUP6 AND SWAP1 PUSH32 0xDDF252AD1BE2C89B69C2B068FC378DAA952BA7F163C4A11628F55A4DF523B3EF SWAP1 PUSH2 0x141B SWAP1 DUP7 SWAP1 PUSH2 0x1DD1 JUMP JUMPDEST PUSH1 0x40 MLOAD DUP1 SWAP2 SUB SWAP1 LOG3 PUSH2 0x973 DUP4 PUSH1 0x0 DUP5 PUSH2 0x973 JUMP JUMPDEST PUSH1 0x0 DUP1 SLOAD PUSH1 0x1 PUSH1 0x1 PUSH1 0xA0 SHL SUB DUP4 DUP2 AND PUSH1 0x1 PUSH1 0x1 PUSH1 0xA0 SHL SUB NOT DUP4 AND DUP2 OR DUP5 SSTORE PUSH1 0x40 MLOAD SWAP2 SWAP1 SWAP3 AND SWAP3 DUP4 SWAP2 PUSH32 0x8BE0079C531659141344CD1FD0A4F28419497F9722A3DAAFE3B4186F6B6457E0 SWAP2 SWAP1 LOG3 POP POP JUMP JUMPDEST PUSH1 0x2 DUP2 ADD SLOAD PUSH1 0x1 DUP3 ADD SLOAD PUSH1 0x0 SWAP2 TIMESTAMP SWAP2 PUSH2 0x1497 SWAP2 PUSH2 0x1549 JUMP JUMPDEST DUP2 LT PUSH2 0x14B8 JUMPI PUSH1 0x5 DUP4 ADD SLOAD PUSH1 0x4 DUP5 ADD SLOAD PUSH2 0x14B0 SWAP2 PUSH2 0x1555 JUMP JUMPDEST SWAP2 POP POP PUSH2 0x863 JUMP JUMPDEST PUSH1 0x0 PUSH2 0x14D1 DUP5 PUSH1 0x1 ADD SLOAD DUP4 PUSH2 0x1555 SWAP1 SWAP2 SWAP1 PUSH4 0xFFFFFFFF AND JUMP JUMPDEST PUSH1 0x3 DUP6 ADD SLOAD SWAP1 SWAP2 POP PUSH1 0x0 PUSH2 0x14E5 DUP4 DUP4 PUSH2 0x1561 JUMP JUMPDEST SWAP1 POP PUSH1 0x0 PUSH2 0x14F3 DUP3 DUP5 PUSH2 0x156D JUMP JUMPDEST SWAP1 POP PUSH1 0x0 PUSH2 0x151C DUP9 PUSH1 0x2 ADD SLOAD PUSH2 0x1516 DUP5 DUP12 PUSH1 0x4 ADD SLOAD PUSH2 0x156D SWAP1 SWAP2 SWAP1 PUSH4 0xFFFFFFFF AND JUMP JUMPDEST SWAP1 PUSH2 0x1561 JUMP JUMPDEST SWAP1 POP PUSH2 0x1535 DUP9 PUSH1 0x5 ADD SLOAD DUP3 PUSH2 0x1555 SWAP1 SWAP2 SWAP1 PUSH4 0xFFFFFFFF AND JUMP JUMPDEST SWAP7 POP PUSH2 0x863 SWAP6 POP POP POP POP POP POP JUMP JUMPDEST POP SWAP2 SWAP1 POP JUMP JUMPDEST PUSH1 0x0 PUSH2 0xDB4 DUP3 DUP5 PUSH2 0x1DE8 JUMP JUMPDEST PUSH1 0x0 PUSH2 0xDB4 DUP3 DUP5 PUSH2 0x1E3F JUMP JUMPDEST PUSH1 0x0 PUSH2 0xDB4 DUP3 DUP5 PUSH2 0x1E00 JUMP JUMPDEST PUSH1 0x0 PUSH2 0xDB4 DUP3 DUP5 PUSH2 0x1E20 JUMP JUMPDEST PUSH1 0x40 MLOAD DUP1 PUSH1 0xC0 ADD PUSH1 0x40 MSTORE DUP1 PUSH1 0x0 ISZERO ISZERO DUP2 MSTORE PUSH1 0x20 ADD PUSH1 0x0 DUP2 MSTORE PUSH1 0x20 ADD PUSH1 0x0 DUP2 MSTORE PUSH1 0x20 ADD PUSH1 0x0 DUP2 MSTORE PUSH1 0x20 ADD PUSH1 0x0 DUP2 MSTORE PUSH1 0x20 ADD PUSH1 0x0 DUP2 MSTORE POP SWAP1 JUMP JUMPDEST DUP1 CALLDATALOAD PUSH1 0x1 PUSH1 0x1 PUSH1 0xA0 SHL SUB DUP2 AND DUP2 EQ PUSH2 0x863 JUMPI PUSH1 0x0 DUP1 REVERT JUMPDEST PUSH1 0x0 PUSH1 0x20 DUP3 DUP5 SUB SLT ISZERO PUSH2 0x15D9 JUMPI DUP1 DUP2 REVERT JUMPDEST PUSH2 0xDB4 DUP3 PUSH2 0x15B1 JUMP JUMPDEST PUSH1 0x0 DUP1 PUSH1 0x40 DUP4 DUP6 SUB SLT ISZERO PUSH2 0x15F4 JUMPI DUP1 DUP2 REVERT JUMPDEST PUSH2 0x15FD DUP4 PUSH2 0x15B1 JUMP JUMPDEST SWAP2 POP PUSH2 0x160B PUSH1 0x20 DUP5 ADD PUSH2 0x15B1 JUMP JUMPDEST SWAP1 POP SWAP3 POP SWAP3 SWAP1 POP JUMP JUMPDEST PUSH1 0x0 DUP1 PUSH1 0x0 PUSH1 0x60 DUP5 DUP7 SUB SLT ISZERO PUSH2 0x1628 JUMPI DUP1 DUP2 REVERT JUMPDEST PUSH2 0x1631 DUP5 PUSH2 0x15B1 JUMP JUMPDEST SWAP3 POP PUSH2 0x163F PUSH1 0x20 DUP6 ADD PUSH2 0x15B1 JUMP JUMPDEST SWAP2 POP PUSH1 0x40 DUP5 ADD CALLDATALOAD SWAP1 POP SWAP3 POP SWAP3 POP SWAP3 JUMP JUMPDEST PUSH1 0x0 DUP1 PUSH1 0x40 DUP4 DUP6 SUB SLT ISZERO PUSH2 0x1661 JUMPI DUP2 DUP3 REVERT JUMPDEST PUSH2 0x166A DUP4 PUSH2 0x15B1 JUMP JUMPDEST SWAP5 PUSH1 0x20 SWAP4 SWAP1 SWAP4 ADD CALLDATALOAD SWAP4 POP POP POP JUMP JUMPDEST PUSH1 0x0 PUSH1 0x20 DUP3 DUP5 SUB SLT ISZERO PUSH2 0x1689 JUMPI DUP1 DUP2 REVERT JUMPDEST POP CALLDATALOAD SWAP2 SWAP1 POP JUMP JUMPDEST PUSH1 0x1 PUSH1 0x1 PUSH1 0xA0 SHL SUB SWAP2 SWAP1 SWAP2 AND DUP2 MSTORE PUSH1 0x20 ADD SWAP1 JUMP JUMPDEST PUSH1 0x1 PUSH1 0x1 PUSH1 0xA0 SHL SUB SWAP3 SWAP1 SWAP3 AND DUP3 MSTORE PUSH1 0x20 DUP3 ADD MSTORE PUSH1 0x40 ADD SWAP1 JUMP JUMPDEST SWAP1 ISZERO ISZERO DUP2 MSTORE PUSH1 0x20 ADD SWAP1 JUMP JUMPDEST PUSH1 0x0 PUSH1 0x20 DUP1 DUP4 MSTORE DUP4 MLOAD DUP1 DUP3 DUP6 ADD MSTORE DUP3 JUMPDEST DUP2 DUP2 LT ISZERO PUSH2 0x16F4 JUMPI DUP6 DUP2 ADD DUP4 ADD MLOAD DUP6 DUP3 ADD PUSH1 0x40 ADD MSTORE DUP3 ADD PUSH2 0x16D8 JUMP JUMPDEST DUP2 DUP2 GT ISZERO PUSH2 0x1705 JUMPI DUP4 PUSH1 0x40 DUP4 DUP8 ADD ADD MSTORE JUMPDEST POP PUSH1 0x1F ADD PUSH1 0x1F NOT AND SWAP3 SWAP1 SWAP3 ADD PUSH1 0x40 ADD SWAP4 SWAP3 POP POP POP JUMP JUMPDEST PUSH1 0x20 DUP1 DUP3 MSTORE PUSH1 0x23 SWAP1 DUP3 ADD MSTORE PUSH32 0x45524332303A207472616E7366657220746F20746865207A65726F2061646472 PUSH1 0x40 DUP3 ADD MSTORE PUSH3 0x657373 PUSH1 0xE8 SHL PUSH1 0x60 DUP3 ADD MSTORE PUSH1 0x80 ADD SWAP1 JUMP JUMPDEST PUSH1 0x20 DUP1 DUP3 MSTORE PUSH1 0x22 SWAP1 DUP3 ADD MSTORE PUSH32 0x45524332303A206275726E20616D6F756E7420657863656564732062616C616E PUSH1 0x40 DUP3 ADD MSTORE PUSH2 0x6365 PUSH1 0xF0 SHL PUSH1 0x60 DUP3 ADD MSTORE PUSH1 0x80 ADD SWAP1 JUMP JUMPDEST PUSH1 0x20 DUP1 DUP3 MSTORE PUSH1 0x15 SWAP1 DUP3 ADD MSTORE PUSH21 0x92DCECC2D8D2C840C2C8C8E4CAE6E640D2DCC8CAF PUSH1 0x5B SHL PUSH1 0x40 DUP3 ADD MSTORE PUSH1 0x60 ADD SWAP1 JUMP JUMPDEST PUSH1 0x20 DUP1 DUP3 MSTORE PUSH1 0x26 SWAP1 DUP3 ADD MSTORE PUSH32 0x4F776E61626C653A206E6577206F776E657220697320746865207A65726F2061 PUSH1 0x40 DUP3 ADD MSTORE PUSH6 0x646472657373 PUSH1 0xD0 SHL PUSH1 0x60 DUP3 ADD MSTORE PUSH1 0x80 ADD SWAP1 JUMP JUMPDEST PUSH1 0x20 DUP1 DUP3 MSTORE PUSH1 0x22 SWAP1 DUP3 ADD MSTORE PUSH32 0x45524332303A20617070726F766520746F20746865207A65726F206164647265 PUSH1 0x40 DUP3 ADD MSTORE PUSH2 0x7373 PUSH1 0xF0 SHL PUSH1 0x60 DUP3 ADD MSTORE PUSH1 0x80 ADD SWAP1 JUMP JUMPDEST PUSH1 0x20 DUP1 DUP3 MSTORE PUSH1 0x2D SWAP1 DUP3 ADD MSTORE PUSH32 0x546F6B656E56657374696E673A20736C696365506572696F645365636F6E6473 PUSH1 0x40 DUP3 ADD MSTORE PUSH13 0x206D757374206265203E3D2031 PUSH1 0x98 SHL PUSH1 0x60 DUP3 ADD MSTORE PUSH1 0x80 ADD SWAP1 JUMP JUMPDEST PUSH1 0x20 DUP1 DUP3 MSTORE PUSH1 0x26 SWAP1 DUP3 ADD MSTORE PUSH32 0x45524332303A207472616E7366657220616D6F756E7420657863656564732062 PUSH1 0x40 DUP3 ADD MSTORE PUSH6 0x616C616E6365 PUSH1 0xD0 SHL PUSH1 0x60 DUP3 ADD MSTORE PUSH1 0x80 ADD SWAP1 JUMP JUMPDEST PUSH1 0x20 DUP1 DUP3 MSTORE PUSH1 0x24 SWAP1 DUP3 ADD MSTORE PUSH32 0x546F6B656E56657374696E673A206E6F7420656E6F756768206672656520746F PUSH1 0x40 DUP3 ADD MSTORE PUSH4 0x6B656E73 PUSH1 0xE0 SHL PUSH1 0x60 DUP3 ADD MSTORE PUSH1 0x80 ADD SWAP1 JUMP JUMPDEST PUSH1 0x20 DUP1 DUP3 MSTORE PUSH1 0x32 SWAP1 DUP3 ADD MSTORE PUSH32 0x546F6B656E56657374696E673A206E6F2076657374696E67207363686564756C PUSH1 0x40 DUP3 ADD MSTORE PUSH18 0x6520666F7220746869732061646472657373 PUSH1 0x70 SHL PUSH1 0x60 DUP3 ADD MSTORE PUSH1 0x80 ADD SWAP1 JUMP JUMPDEST PUSH1 0x20 DUP1 DUP3 MSTORE PUSH1 0x39 SWAP1 DUP3 ADD MSTORE PUSH32 0x546F6B656E56657374696E673A20746865206164647265737320697320616C72 PUSH1 0x40 DUP3 ADD MSTORE PUSH32 0x6561647920686176652076657374696E672073686564756C6500000000000000 PUSH1 0x60 DUP3 ADD MSTORE PUSH1 0x80 ADD SWAP1 JUMP JUMPDEST PUSH1 0x20 DUP1 DUP3 MSTORE PUSH1 0x35 SWAP1 DUP3 ADD MSTORE PUSH32 0x546F6B656E56657374696E673A2063616E6E6F742072656C6561736520746F6B PUSH1 0x40 DUP3 ADD MSTORE PUSH21 0x656E732C206E6F2076657374656420746F6B656E73 PUSH1 0x58 SHL PUSH1 0x60 DUP3 ADD MSTORE PUSH1 0x80 ADD SWAP1 JUMP JUMPDEST PUSH1 0x20 DUP1 DUP3 MSTORE PUSH1 0x28 SWAP1 DUP3 ADD MSTORE PUSH32 0x45524332303A207472616E7366657220616D6F756E7420657863656564732061 PUSH1 0x40 DUP3 ADD MSTORE PUSH8 0x6C6C6F77616E6365 PUSH1 0xC0 SHL PUSH1 0x60 DUP3 ADD MSTORE PUSH1 0x80 ADD SWAP1 JUMP JUMPDEST PUSH1 0x20 DUP1 DUP3 MSTORE DUP2 DUP2 ADD MSTORE PUSH32 0x4F776E61626C653A2063616C6C6572206973206E6F7420746865206F776E6572 PUSH1 0x40 DUP3 ADD MSTORE PUSH1 0x60 ADD SWAP1 JUMP JUMPDEST PUSH1 0x20 DUP1 DUP3 MSTORE DUP2 DUP2 ADD MSTORE PUSH32 0x546F6B656E56657374696E673A20616D6F756E74206D757374206265203E2030 PUSH1 0x40 DUP3 ADD MSTORE PUSH1 0x60 ADD SWAP1 JUMP JUMPDEST PUSH1 0x20 DUP1 DUP3 MSTORE PUSH1 0x24 SWAP1 DUP3 ADD MSTORE PUSH32 0x45524332303A206275726E20616D6F756E74206578636565647320616C6C6F77 PUSH1 0x40 DUP3 ADD MSTORE PUSH4 0x616E6365 PUSH1 0xE0 SHL PUSH1 0x60 DUP3 ADD MSTORE PUSH1 0x80 ADD SWAP1 JUMP JUMPDEST PUSH1 0x20 DUP1 DUP3 MSTORE PUSH1 0x22 SWAP1 DUP3 ADD MSTORE PUSH32 0x546F6B656E56657374696E673A206475726174696F6E206D757374206265203E PUSH1 0x40 DUP3 ADD MSTORE PUSH2 0x203 PUSH1 0xF4 SHL PUSH1 0x60 DUP3 ADD MSTORE PUSH1 0x80 ADD SWAP1 JUMP JUMPDEST PUSH1 0x20 DUP1 DUP3 MSTORE PUSH1 0x21 SWAP1 DUP3 ADD MSTORE PUSH32 0x45524332303A206275726E2066726F6D20746865207A65726F20616464726573 PUSH1 0x40 DUP3 ADD MSTORE PUSH1 0x73 PUSH1 0xF8 SHL PUSH1 0x60 DUP3 ADD MSTORE PUSH1 0x80 ADD SWAP1 JUMP JUMPDEST PUSH1 0x20 DUP1 DUP3 MSTORE PUSH1 0x25 SWAP1 DUP3 ADD MSTORE PUSH32 0x45524332303A207472616E736665722066726F6D20746865207A65726F206164 PUSH1 0x40 DUP3 ADD MSTORE PUSH5 0x6472657373 PUSH1 0xD8 SHL PUSH1 0x60 DUP3 ADD MSTORE PUSH1 0x80 ADD SWAP1 JUMP JUMPDEST PUSH1 0x20 DUP1 DUP3 MSTORE PUSH1 0x24 SWAP1 DUP3 ADD MSTORE PUSH32 0x45524332303A20617070726F76652066726F6D20746865207A65726F20616464 PUSH1 0x40 DUP3 ADD MSTORE PUSH4 0x72657373 PUSH1 0xE0 SHL PUSH1 0x60 DUP3 ADD MSTORE PUSH1 0x80 ADD SWAP1 JUMP JUMPDEST PUSH1 0x20 DUP1 DUP3 MSTORE PUSH1 0x4A SWAP1 DUP3 ADD MSTORE PUSH32 0x546F6B656E56657374696E673A2063616E6E6F74206372656174652076657374 PUSH1 0x40 DUP3 ADD MSTORE PUSH32 0x696E67207363686564756C652062656361757365206E6F742073756666696369 PUSH1 0x60 DUP3 ADD MSTORE PUSH10 0x656E7420746F6B656E73 PUSH1 0xB0 SHL PUSH1 0x80 DUP3 ADD MSTORE PUSH1 0xA0 ADD SWAP1 JUMP JUMPDEST PUSH1 0x20 DUP1 DUP3 MSTORE PUSH1 0x34 SWAP1 DUP3 ADD MSTORE PUSH32 0x546F6B656E56657374696E673A206E6F2076657374696E67207363686564756C PUSH1 0x40 DUP3 ADD MSTORE PUSH20 0x32903337B91031BAB93932B73A1039B2B73232B9 PUSH1 0x61 SHL PUSH1 0x60 DUP3 ADD MSTORE PUSH1 0x80 ADD SWAP1 JUMP JUMPDEST PUSH1 0x20 DUP1 DUP3 MSTORE PUSH1 0x25 SWAP1 DUP3 ADD MSTORE PUSH32 0x45524332303A2064656372656173656420616C6C6F77616E63652062656C6F77 PUSH1 0x40 DUP3 ADD MSTORE PUSH5 0x207A65726F PUSH1 0xD8 SHL PUSH1 0x60 DUP3 ADD MSTORE PUSH1 0x80 ADD SWAP1 JUMP JUMPDEST PUSH1 0x20 DUP1 DUP3 MSTORE PUSH1 0x2E SWAP1 DUP3 ADD MSTORE PUSH32 0x546F6B656E56657374696E673A20746869732076657473696E6720686173206E PUSH1 0x40 DUP3 ADD MSTORE PUSH14 0x1BDD081CDD185C9D1959081E595D PUSH1 0x92 SHL PUSH1 0x60 DUP3 ADD MSTORE PUSH1 0x80 ADD SWAP1 JUMP JUMPDEST PUSH1 0x0 PUSH1 0xC0 DUP3 ADD SWAP1 POP DUP3 MLOAD ISZERO ISZERO DUP3 MSTORE PUSH1 0x20 DUP4 ADD MLOAD PUSH1 0x20 DUP4 ADD MSTORE PUSH1 0x40 DUP4 ADD MLOAD PUSH1 0x40 DUP4 ADD MSTORE PUSH1 0x60 DUP4 ADD MLOAD PUSH1 0x60 DUP4 ADD MSTORE PUSH1 0x80 DUP4 ADD MLOAD PUSH1 0x80 DUP4 ADD MSTORE PUSH1 0xA0 DUP4 ADD MLOAD PUSH1 0xA0 DUP4 ADD MSTORE SWAP3 SWAP2 POP POP JUMP JUMPDEST SWAP1 DUP2 MSTORE PUSH1 0x20 ADD SWAP1 JUMP JUMPDEST PUSH1 0xFF SWAP2 SWAP1 SWAP2 AND DUP2 MSTORE PUSH1 0x20 ADD SWAP1 JUMP JUMPDEST PUSH1 0x0 DUP3 NOT DUP3 GT ISZERO PUSH2 0x1DFB JUMPI PUSH2 0x1DFB PUSH2 0x1E8B JUMP JUMPDEST POP ADD SWAP1 JUMP JUMPDEST PUSH1 0x0 DUP3 PUSH2 0x1E1B JUMPI PUSH4 0x4E487B71 PUSH1 0xE0 SHL DUP2 MSTORE PUSH1 0x12 PUSH1 0x4 MSTORE PUSH1 0x24 DUP2 REVERT JUMPDEST POP DIV SWAP1 JUMP JUMPDEST PUSH1 0x0 DUP2 PUSH1 0x0 NOT DIV DUP4 GT DUP3 ISZERO ISZERO AND ISZERO PUSH2 0x1E3A JUMPI PUSH2 0x1E3A PUSH2 0x1E8B JUMP JUMPDEST POP MUL SWAP1 JUMP JUMPDEST PUSH1 0x0 DUP3 DUP3 LT ISZERO PUSH2 0x1E51 JUMPI PUSH2 0x1E51 PUSH2 0x1E8B JUMP JUMPDEST POP SUB SWAP1 JUMP JUMPDEST PUSH1 0x2 DUP2 DIV PUSH1 0x1 DUP3 AND DUP1 PUSH2 0x1E6A JUMPI PUSH1 0x7F DUP3 AND SWAP2 POP JUMPDEST PUSH1 0x20 DUP3 LT DUP2 EQ ISZERO PUSH2 0x1543 JUMPI PUSH4 0x4E487B71 PUSH1 0xE0 SHL PUSH1 0x0 MSTORE PUSH1 0x22 PUSH1 0x4 MSTORE PUSH1 0x24 PUSH1 0x0 REVERT JUMPDEST PUSH4 0x4E487B71 PUSH1 0xE0 SHL PUSH1 0x0 MSTORE PUSH1 0x11 PUSH1 0x4 MSTORE PUSH1 0x24 PUSH1 0x0 REVERT INVALID LOG2 PUSH5 0x6970667358 0x22 SLT KECCAK256 LOG4 0xD6 GASPRICE 0xBC DUP4 0x5C LOG3 0xDB 0xB4 SHR 0xE1 0x23 SMOD CALLER 0xC6 LOG3 0x24 SSTORE SELFDESTRUCT CALLDATACOPY DUP5 0xF8 PUSH18 0x81570E1F82B07AABA764736F6C6343000800 STOP CALLER 0xDD CALLCODE MSTORE 0xAD SHL 0xE2 0xC8 SWAP12 PUSH10 0xC2B068FC378DAA952BA7 CALL PUSH4 0xC4A11628 CREATE2 GAS 0x4D CREATE2 0x23 0xB3 0xEF "
		},
		"gasEstimates": {
			"creation": {
				"codeDepositCost": "1579000",
				"executionCost": "infinite",
				"totalCost": "infinite"
			},
			"external": {
				"addEcosystemVestingAddress(address,uint256)": "infinite",
				"addExchangeFeeVestingAddress(address,uint256)": "infinite",
				"addMarketingVestingAddress(address,uint256)": "infinite",
				"addPrivateSaleVestingAddress(address,uint256)": "infinite",
				"addTeamAndAdvisorVestingAddress(address,uint256)": "infinite",
				"allowance(address,address)": "infinite",
				"approve(address,uint256)": "22652",
				"balanceOf(address)": "1337",
				"burn(uint256)": "infinite",
				"burnFrom(address,uint256)": "infinite",
				"computeReleasableAmount(address)": "infinite",
				"decimals()": "330",
				"decreaseAllowance(address,uint256)": "infinite",
				"ecosystemBeneficiary()": "2033",
				"exchangeFeeBeneficiary()": "2012",
				"getEcosystemVestingAddress(uint256)": "2941",
				"getEcosystemVestingAddressCount()": "1074",
				"getExchangeFeeVestingAddress(uint256)": "2918",
				"getExchangeFeeVestingAddressCount()": "1117",
				"getMarketingVestingAddress(uint256)": "3007",
				"getMarketingVestingAddressCount()": "1117",
				"getPrivateSaleVestingAddress(uint256)": "3006",
				"getPrivateSaleVestingAddressCount()": "1140",
				"getTeamAndAdvisorVestingAddress(uint256)": "2963",
				"getTeamAndAdvisorVestingAddressCount()": "1073",
				"getVestingByAddress(address)": "5944",
				"getVestingSchedulesTotalAmount()": "1118",
				"increaseAllowance(address,uint256)": "infinite",
				"marketingBeneficiary()": "1945",
				"name()": "infinite",
				"owner()": "1182",
				"privateSaleBeneficiary()": "2011",
				"publicSaleBeneficiary()": "1988",
				"release()": "infinite",
				"renounceOwnership()": "23593",
				"symbol()": "infinite",
				"totalSupply()": "1141",
				"transfer(address,uint256)": "infinite",
				"transferFrom(address,address,uint256)": "infinite",
				"transferOwnership(address)": "23809"
			}
		},
		"methodIdentifiers": {
			"addEcosystemVestingAddress(address,uint256)": "0ee9a7a0",
			"addExchangeFeeVestingAddress(address,uint256)": "e1afba7d",
			"addMarketingVestingAddress(address,uint256)": "ca593749",
			"addPrivateSaleVestingAddress(address,uint256)": "272a7b27",
			"addTeamAndAdvisorVestingAddress(address,uint256)": "82537bb5",
			"allowance(address,address)": "dd62ed3e",
			"approve(address,uint256)": "095ea7b3",
			"balanceOf(address)": "70a08231",
			"burn(uint256)": "42966c68",
			"burnFrom(address,uint256)": "79cc6790",
			"computeReleasableAmount(address)": "dd1fdb62",
			"decimals()": "313ce567",
			"decreaseAllowance(address,uint256)": "a457c2d7",
			"ecosystemBeneficiary()": "7be168be",
			"exchangeFeeBeneficiary()": "37d2179c",
			"getEcosystemVestingAddress(uint256)": "45f31cc4",
			"getEcosystemVestingAddressCount()": "25bae39f",
			"getExchangeFeeVestingAddress(uint256)": "c8bc7e71",
			"getExchangeFeeVestingAddressCount()": "a55142cd",
			"getMarketingVestingAddress(uint256)": "60de8409",
			"getMarketingVestingAddressCount()": "ceb56e94",
			"getPrivateSaleVestingAddress(uint256)": "c1a9b1a1",
			"getPrivateSaleVestingAddressCount()": "58c1c6a0",
			"getTeamAndAdvisorVestingAddress(uint256)": "88a1d821",
			"getTeamAndAdvisorVestingAddressCount()": "69372560",
			"getVestingByAddress(address)": "fb919fea",
			"getVestingSchedulesTotalAmount()": "48deb471",
			"increaseAllowance(address,uint256)": "39509351",
			"marketingBeneficiary()": "979844bd",
			"name()": "06fdde03",
			"owner()": "8da5cb5b",
			"privateSaleBeneficiary()": "cfa9a3a9",
			"publicSaleBeneficiary()": "f242cd1c",
			"release()": "86d1a69f",
			"renounceOwnership()": "715018a6",
			"symbol()": "95d89b41",
			"totalSupply()": "18160ddd",
			"transfer(address,uint256)": "a9059cbb",
			"transferFrom(address,address,uint256)": "23b872dd",
			"transferOwnership(address)": "f2fde38b"
		}
	},
	"abi": [
		{
			"inputs": [
				{
					"internalType": "address",
					"name": "publicSaleAddress",
					"type": "address"
				},
				{
					"internalType": "uint256",
					"name": "publicSaleAmount",
					"type": "uint256"
				},
				{
					"internalType": "address",
					"name": "privateSaleAdddress",
					"type": "address"
				},
				{
					"internalType": "uint256",
					"name": "privateSaleAmount",
					"type": "uint256"
				},
				{
					"internalType": "address",
					"name": "ecosystemAddress",
					"type": "address"
				},
				{
					"internalType": "uint256",
					"name": "ecosystemAmount",
					"type": "uint256"
				},
				{
					"internalType": "address",
					"name": "exchangeFeeAddress",
					"type": "address"
				},
				{
					"internalType": "uint256",
					"name": "exchangeFeeAmount",
					"type": "uint256"
				},
				{
					"internalType": "address",
					"name": "marketingAddress",
					"type": "address"
				},
				{
					"internalType": "uint256",
					"name": "marketingAmount",
					"type": "uint256"
				}
			],
			"stateMutability": "nonpayable",
			"type": "constructor"
		},
		{
			"anonymous": false,
			"inputs": [
				{
					"indexed": true,
					"internalType": "address",
					"name": "owner",
					"type": "address"
				},
				{
					"indexed": true,
					"internalType": "address",
					"name": "spender",
					"type": "address"
				},
				{
					"indexed": false,
					"internalType": "uint256",
					"name": "value",
					"type": "uint256"
				}
			],
			"name": "Approval",
			"type": "event"
		},
		{
			"anonymous": false,
			"inputs": [
				{
					"indexed": true,
					"internalType": "address",
					"name": "previousOwner",
					"type": "address"
				},
				{
					"indexed": true,
					"internalType": "address",
					"name": "newOwner",
					"type": "address"
				}
			],
			"name": "OwnershipTransferred",
			"type": "event"
		},
		{
			"anonymous": false,
			"inputs": [
				{
					"indexed": false,
					"internalType": "uint256",
					"name": "amount",
					"type": "uint256"
				}
			],
			"name": "Released",
			"type": "event"
		},
		{
			"anonymous": false,
			"inputs": [
				{
					"indexed": true,
					"internalType": "address",
					"name": "from",
					"type": "address"
				},
				{
					"indexed": true,
					"internalType": "address",
					"name": "to",
					"type": "address"
				},
				{
					"indexed": false,
					"internalType": "uint256",
					"name": "value",
					"type": "uint256"
				}
			],
			"name": "Transfer",
			"type": "event"
		},
		{
			"inputs": [
				{
					"internalType": "address",
					"name": "beneficiary",
					"type": "address"
				},
				{
					"internalType": "uint256",
					"name": "amount",
					"type": "uint256"
				}
			],
			"name": "addEcosystemVestingAddress",
			"outputs": [],
			"stateMutability": "nonpayable",
			"type": "function"
		},
		{
			"inputs": [
				{
					"internalType": "address",
					"name": "beneficiary",
					"type": "address"
				},
				{
					"internalType": "uint256",
					"name": "amount",
					"type": "uint256"
				}
			],
			"name": "addExchangeFeeVestingAddress",
			"outputs": [],
			"stateMutability": "nonpayable",
			"type": "function"
		},
		{
			"inputs": [
				{
					"internalType": "address",
					"name": "beneficiary",
					"type": "address"
				},
				{
					"internalType": "uint256",
					"name": "amount",
					"type": "uint256"
				}
			],
			"name": "addMarketingVestingAddress",
			"outputs": [],
			"stateMutability": "nonpayable",
			"type": "function"
		},
		{
			"inputs": [
				{
					"internalType": "address",
					"name": "beneficiary",
					"type": "address"
				},
				{
					"internalType": "uint256",
					"name": "amount",
					"type": "uint256"
				}
			],
			"name": "addPrivateSaleVestingAddress",
			"outputs": [],
			"stateMutability": "nonpayable",
			"type": "function"
		},
		{
			"inputs": [
				{
					"internalType": "address",
					"name": "beneficiary",
					"type": "address"
				},
				{
					"internalType": "uint256",
					"name": "amount",
					"type": "uint256"
				}
			],
			"name": "addTeamAndAdvisorVestingAddress",
			"outputs": [],
			"stateMutability": "nonpayable",
			"type": "function"
		},
		{
			"inputs": [
				{
					"internalType": "address",
					"name": "owner",
					"type": "address"
				},
				{
					"internalType": "address",
					"name": "spender",
					"type": "address"
				}
			],
			"name": "allowance",
			"outputs": [
				{
					"internalType": "uint256",
					"name": "",
					"type": "uint256"
				}
			],
			"stateMutability": "view",
			"type": "function"
		},
		{
			"inputs": [
				{
					"internalType": "address",
					"name": "spender",
					"type": "address"
				},
				{
					"internalType": "uint256",
					"name": "amount",
					"type": "uint256"
				}
			],
			"name": "approve",
			"outputs": [
				{
					"internalType": "bool",
					"name": "",
					"type": "bool"
				}
			],
			"stateMutability": "nonpayable",
			"type": "function"
		},
		{
			"inputs": [
				{
					"internalType": "address",
					"name": "account",
					"type": "address"
				}
			],
			"name": "balanceOf",
			"outputs": [
				{
					"internalType": "uint256",
					"name": "",
					"type": "uint256"
				}
			],
			"stateMutability": "view",
			"type": "function"
		},
		{
			"inputs": [
				{
					"internalType": "uint256",
					"name": "amount",
					"type": "uint256"
				}
			],
			"name": "burn",
			"outputs": [],
			"stateMutability": "nonpayable",
			"type": "function"
		},
		{
			"inputs": [
				{
					"internalType": "address",
					"name": "account",
					"type": "address"
				},
				{
					"internalType": "uint256",
					"name": "amount",
					"type": "uint256"
				}
			],
			"name": "burnFrom",
			"outputs": [],
			"stateMutability": "nonpayable",
			"type": "function"
		},
		{
			"inputs": [
				{
					"internalType": "address",
					"name": "beneficiary",
					"type": "address"
				}
			],
			"name": "computeReleasableAmount",
			"outputs": [
				{
					"internalType": "uint256",
					"name": "",
					"type": "uint256"
				}
			],
			"stateMutability": "view",
			"type": "function"
		},
		{
			"inputs": [],
			"name": "decimals",
			"outputs": [
				{
					"internalType": "uint8",
					"name": "",
					"type": "uint8"
				}
			],
			"stateMutability": "view",
			"type": "function"
		},
		{
			"inputs": [
				{
					"internalType": "address",
					"name": "spender",
					"type": "address"
				},
				{
					"internalType": "uint256",
					"name": "subtractedValue",
					"type": "uint256"
				}
			],
			"name": "decreaseAllowance",
			"outputs": [
				{
					"internalType": "bool",
					"name": "",
					"type": "bool"
				}
			],
			"stateMutability": "nonpayable",
			"type": "function"
		},
		{
			"inputs": [],
			"name": "ecosystemBeneficiary",
			"outputs": [
				{
					"internalType": "address",
					"name": "beneficiary",
					"type": "address"
				},
				{
					"internalType": "uint256",
					"name": "amount",
					"type": "uint256"
				}
			],
			"stateMutability": "view",
			"type": "function"
		},
		{
			"inputs": [],
			"name": "exchangeFeeBeneficiary",
			"outputs": [
				{
					"internalType": "address",
					"name": "beneficiary",
					"type": "address"
				},
				{
					"internalType": "uint256",
					"name": "amount",
					"type": "uint256"
				}
			],
			"stateMutability": "view",
			"type": "function"
		},
		{
			"inputs": [
				{
					"internalType": "uint256",
					"name": "index",
					"type": "uint256"
				}
			],
			"name": "getEcosystemVestingAddress",
			"outputs": [
				{
					"internalType": "address",
					"name": "",
					"type": "address"
				}
			],
			"stateMutability": "view",
			"type": "function"
		},
		{
			"inputs": [],
			"name": "getEcosystemVestingAddressCount",
			"outputs": [
				{
					"internalType": "uint256",
					"name": "",
					"type": "uint256"
				}
			],
			"stateMutability": "view",
			"type": "function"
		},
		{
			"inputs": [
				{
					"internalType": "uint256",
					"name": "index",
					"type": "uint256"
				}
			],
			"name": "getExchangeFeeVestingAddress",
			"outputs": [
				{
					"internalType": "address",
					"name": "",
					"type": "address"
				}
			],
			"stateMutability": "view",
			"type": "function"
		},
		{
			"inputs": [],
			"name": "getExchangeFeeVestingAddressCount",
			"outputs": [
				{
					"internalType": "uint256",
					"name": "",
					"type": "uint256"
				}
			],
			"stateMutability": "view",
			"type": "function"
		},
		{
			"inputs": [
				{
					"internalType": "uint256",
					"name": "index",
					"type": "uint256"
				}
			],
			"name": "getMarketingVestingAddress",
			"outputs": [
				{
					"internalType": "address",
					"name": "",
					"type": "address"
				}
			],
			"stateMutability": "view",
			"type": "function"
		},
		{
			"inputs": [],
			"name": "getMarketingVestingAddressCount",
			"outputs": [
				{
					"internalType": "uint256",
					"name": "",
					"type": "uint256"
				}
			],
			"stateMutability": "view",
			"type": "function"
		},
		{
			"inputs": [
				{
					"internalType": "uint256",
					"name": "index",
					"type": "uint256"
				}
			],
			"name": "getPrivateSaleVestingAddress",
			"outputs": [
				{
					"internalType": "address",
					"name": "",
					"type": "address"
				}
			],
			"stateMutability": "view",
			"type": "function"
		},
		{
			"inputs": [],
			"name": "getPrivateSaleVestingAddressCount",
			"outputs": [
				{
					"internalType": "uint256",
					"name": "",
					"type": "uint256"
				}
			],
			"stateMutability": "view",
			"type": "function"
		},
		{
			"inputs": [
				{
					"internalType": "uint256",
					"name": "index",
					"type": "uint256"
				}
			],
			"name": "getTeamAndAdvisorVestingAddress",
			"outputs": [
				{
					"internalType": "address",
					"name": "",
					"type": "address"
				}
			],
			"stateMutability": "view",
			"type": "function"
		},
		{
			"inputs": [],
			"name": "getTeamAndAdvisorVestingAddressCount",
			"outputs": [
				{
					"internalType": "uint256",
					"name": "",
					"type": "uint256"
				}
			],
			"stateMutability": "view",
			"type": "function"
		},
		{
			"inputs": [
				{
					"internalType": "address",
					"name": "beneficiary",
					"type": "address"
				}
			],
			"name": "getVestingByAddress",
			"outputs": [
				{
					"components": [
						{
							"internalType": "bool",
							"name": "initialized",
							"type": "bool"
						},
						{
							"internalType": "uint256",
							"name": "start",
							"type": "uint256"
						},
						{
							"internalType": "uint256",
							"name": "duration",
							"type": "uint256"
						},
						{
							"internalType": "uint256",
							"name": "period",
							"type": "uint256"
						},
						{
							"internalType": "uint256",
							"name": "amountTotal",
							"type": "uint256"
						},
						{
							"internalType": "uint256",
							"name": "released",
							"type": "uint256"
						}
					],
					"internalType": "struct ERC20Vesting.VestingSchedule",
					"name": "",
					"type": "tuple"
				}
			],
			"stateMutability": "view",
			"type": "function"
		},
		{
			"inputs": [],
			"name": "getVestingSchedulesTotalAmount",
			"outputs": [
				{
					"internalType": "uint256",
					"name": "",
					"type": "uint256"
				}
			],
			"stateMutability": "view",
			"type": "function"
		},
		{
			"inputs": [
				{
					"internalType": "address",
					"name": "spender",
					"type": "address"
				},
				{
					"internalType": "uint256",
					"name": "addedValue",
					"type": "uint256"
				}
			],
			"name": "increaseAllowance",
			"outputs": [
				{
					"internalType": "bool",
					"name": "",
					"type": "bool"
				}
			],
			"stateMutability": "nonpayable",
			"type": "function"
		},
		{
			"inputs": [],
			"name": "marketingBeneficiary",
			"outputs": [
				{
					"internalType": "address",
					"name": "beneficiary",
					"type": "address"
				},
				{
					"internalType": "uint256",
					"name": "amount",
					"type": "uint256"
				}
			],
			"stateMutability": "view",
			"type": "function"
		},
		{
			"inputs": [],
			"name": "name",
			"outputs": [
				{
					"internalType": "string",
					"name": "",
					"type": "string"
				}
			],
			"stateMutability": "view",
			"type": "function"
		},
		{
			"inputs": [],
			"name": "owner",
			"outputs": [
				{
					"internalType": "address",
					"name": "",
					"type": "address"
				}
			],
			"stateMutability": "view",
			"type": "function"
		},
		{
			"inputs": [],
			"name": "privateSaleBeneficiary",
			"outputs": [
				{
					"internalType": "address",
					"name": "beneficiary",
					"type": "address"
				},
				{
					"internalType": "uint256",
					"name": "amount",
					"type": "uint256"
				}
			],
			"stateMutability": "view",
			"type": "function"
		},
		{
			"inputs": [],
			"name": "publicSaleBeneficiary",
			"outputs": [
				{
					"internalType": "address",
					"name": "beneficiary",
					"type": "address"
				},
				{
					"internalType": "uint256",
					"name": "amount",
					"type": "uint256"
				}
			],
			"stateMutability": "view",
			"type": "function"
		},
		{
			"inputs": [],
			"name": "release",
			"outputs": [],
			"stateMutability": "nonpayable",
			"type": "function"
		},
		{
			"inputs": [],
			"name": "renounceOwnership",
			"outputs": [],
			"stateMutability": "nonpayable",
			"type": "function"
		},
		{
			"inputs": [],
			"name": "symbol",
			"outputs": [
				{
					"internalType": "string",
					"name": "",
					"type": "string"
				}
			],
			"stateMutability": "view",
			"type": "function"
		},
		{
			"inputs": [],
			"name": "totalSupply",
			"outputs": [
				{
					"internalType": "uint256",
					"name": "",
					"type": "uint256"
				}
			],
			"stateMutability": "view",
			"type": "function"
		},
		{
			"inputs": [
				{
					"internalType": "address",
					"name": "recipient",
					"type": "address"
				},
				{
					"internalType": "uint256",
					"name": "amount",
					"type": "uint256"
				}
			],
			"name": "transfer",
			"outputs": [
				{
					"internalType": "bool",
					"name": "",
					"type": "bool"
				}
			],
			"stateMutability": "nonpayable",
			"type": "function"
		},
		{
			"inputs": [
				{
					"internalType": "address",
					"name": "sender",
					"type": "address"
				},
				{
					"internalType": "address",
					"name": "recipient",
					"type": "address"
				},
				{
					"internalType": "uint256",
					"name": "amount",
					"type": "uint256"
				}
			],
			"name": "transferFrom",
			"outputs": [
				{
					"internalType": "bool",
					"name": "",
					"type": "bool"
				}
			],
			"stateMutability": "nonpayable",
			"type": "function"
		},
		{
			"inputs": [
				{
					"internalType": "address",
					"name": "newOwner",
					"type": "address"
				}
			],
			"name": "transferOwnership",
			"outputs": [],
			"stateMutability": "nonpayable",
			"type": "function"
		}
	]
}